{
  "contractName": "CryptoSoccerBall",
  "abi": [
    {
      "inputs": [],
      "stateMutability": "nonpayable",
      "type": "constructor"
    },
    {
      "anonymous": false,
      "inputs": [
        {
          "indexed": true,
          "internalType": "address",
          "name": "owner",
          "type": "address"
        },
        {
          "indexed": true,
          "internalType": "address",
          "name": "approved",
          "type": "address"
        },
        {
          "indexed": true,
          "internalType": "uint256",
          "name": "tokenId",
          "type": "uint256"
        }
      ],
      "name": "Approval",
      "type": "event"
    },
    {
      "anonymous": false,
      "inputs": [
        {
          "indexed": true,
          "internalType": "address",
          "name": "owner",
          "type": "address"
        },
        {
          "indexed": true,
          "internalType": "address",
          "name": "operator",
          "type": "address"
        },
        {
          "indexed": false,
          "internalType": "bool",
          "name": "approved",
          "type": "bool"
        }
      ],
      "name": "ApprovalForAll",
      "type": "event"
    },
    {
      "anonymous": false,
      "inputs": [
        {
          "indexed": true,
          "internalType": "address",
          "name": "from",
          "type": "address"
        },
        {
          "indexed": true,
          "internalType": "address",
          "name": "to",
          "type": "address"
        },
        {
          "indexed": true,
          "internalType": "uint256",
          "name": "tokenId",
          "type": "uint256"
        }
      ],
      "name": "Transfer",
      "type": "event"
    },
    {
      "inputs": [
        {
          "internalType": "address",
          "name": "to",
          "type": "address"
        },
        {
          "internalType": "uint256",
          "name": "tokenId",
          "type": "uint256"
        }
      ],
      "name": "approve",
      "outputs": [],
      "stateMutability": "nonpayable",
      "type": "function"
    },
    {
      "inputs": [
        {
          "internalType": "address",
          "name": "owner",
          "type": "address"
        }
      ],
      "name": "balanceOf",
      "outputs": [
        {
          "internalType": "uint256",
          "name": "",
          "type": "uint256"
        }
      ],
      "stateMutability": "view",
      "type": "function",
      "constant": true
    },
    {
      "inputs": [
        {
          "internalType": "uint256",
          "name": "tokenId",
          "type": "uint256"
        }
      ],
      "name": "getApproved",
      "outputs": [
        {
          "internalType": "address",
          "name": "",
          "type": "address"
        }
      ],
      "stateMutability": "view",
      "type": "function",
      "constant": true
    },
    {
      "inputs": [
        {
          "internalType": "address",
          "name": "owner",
          "type": "address"
        },
        {
          "internalType": "address",
          "name": "operator",
          "type": "address"
        }
      ],
      "name": "isApprovedForAll",
      "outputs": [
        {
          "internalType": "bool",
          "name": "",
          "type": "bool"
        }
      ],
      "stateMutability": "view",
      "type": "function",
      "constant": true
    },
    {
      "inputs": [],
      "name": "name",
      "outputs": [
        {
          "internalType": "string",
          "name": "",
          "type": "string"
        }
      ],
      "stateMutability": "view",
      "type": "function",
      "constant": true
    },
    {
      "inputs": [
        {
          "internalType": "uint256",
          "name": "tokenId",
          "type": "uint256"
        }
      ],
      "name": "ownerOf",
      "outputs": [
        {
          "internalType": "address",
          "name": "",
          "type": "address"
        }
      ],
      "stateMutability": "view",
      "type": "function",
      "constant": true
    },
    {
      "inputs": [
        {
          "internalType": "address",
          "name": "operator",
          "type": "address"
        },
        {
          "internalType": "bool",
          "name": "approved",
          "type": "bool"
        }
      ],
      "name": "setApprovalForAll",
      "outputs": [],
      "stateMutability": "nonpayable",
      "type": "function"
    },
    {
      "inputs": [
        {
          "internalType": "bytes4",
          "name": "interfaceId",
          "type": "bytes4"
        }
      ],
      "name": "supportsInterface",
      "outputs": [
        {
          "internalType": "bool",
          "name": "",
          "type": "bool"
        }
      ],
      "stateMutability": "view",
      "type": "function",
      "constant": true
    },
    {
      "inputs": [],
      "name": "symbol",
      "outputs": [
        {
          "internalType": "string",
          "name": "",
          "type": "string"
        }
      ],
      "stateMutability": "view",
      "type": "function",
      "constant": true
    },
    {
      "inputs": [
        {
          "internalType": "uint256",
          "name": "tokenId",
          "type": "uint256"
        }
      ],
      "name": "tokenURI",
      "outputs": [
        {
          "internalType": "string",
          "name": "",
          "type": "string"
        }
      ],
      "stateMutability": "view",
      "type": "function",
      "constant": true
    },
    {
      "inputs": [],
      "name": "createSoccerBall",
      "outputs": [],
      "stateMutability": "nonpayable",
      "type": "function"
    },
    {
      "inputs": [
        {
          "internalType": "address",
          "name": "user",
          "type": "address"
        }
      ],
      "name": "canCreateBall",
      "outputs": [
        {
          "internalType": "bool",
          "name": "",
          "type": "bool"
        }
      ],
      "stateMutability": "view",
      "type": "function",
      "constant": true
    },
    {
      "inputs": [],
      "name": "getNbBall",
      "outputs": [
        {
          "internalType": "uint32",
          "name": "",
          "type": "uint32"
        }
      ],
      "stateMutability": "view",
      "type": "function",
      "constant": true
    },
    {
      "inputs": [
        {
          "internalType": "uint256",
          "name": "tokenId",
          "type": "uint256"
        }
      ],
      "name": "exists",
      "outputs": [
        {
          "internalType": "bool",
          "name": "",
          "type": "bool"
        }
      ],
      "stateMutability": "view",
      "type": "function",
      "constant": true
    },
    {
      "inputs": [
        {
          "internalType": "address",
          "name": "user",
          "type": "address"
        }
      ],
      "name": "getMasterOwnerBallOf",
      "outputs": [
        {
          "internalType": "uint256",
          "name": "",
          "type": "uint256"
        }
      ],
      "stateMutability": "view",
      "type": "function",
      "constant": true
    },
    {
      "inputs": [],
      "name": "getMinStealDelay",
      "outputs": [
        {
          "internalType": "uint64",
          "name": "",
          "type": "uint64"
        }
      ],
      "stateMutability": "view",
      "type": "function",
      "constant": true
    },
    {
      "inputs": [],
      "name": "getReferee",
      "outputs": [
        {
          "internalType": "address",
          "name": "",
          "type": "address"
        }
      ],
      "stateMutability": "view",
      "type": "function",
      "constant": true
    },
    {
      "inputs": [
        {
          "internalType": "address",
          "name": "_owner",
          "type": "address"
        }
      ],
      "name": "tokensOfOwner",
      "outputs": [
        {
          "internalType": "uint256[]",
          "name": "ownerTokens",
          "type": "uint256[]"
        }
      ],
      "stateMutability": "view",
      "type": "function",
      "constant": true
    },
    {
      "inputs": [
        {
          "internalType": "uint256",
          "name": "tokenId",
          "type": "uint256"
        }
      ],
      "name": "masterOwnerOf",
      "outputs": [
        {
          "internalType": "address",
          "name": "",
          "type": "address"
        }
      ],
      "stateMutability": "view",
      "type": "function",
      "constant": true
    },
    {
      "inputs": [
        {
          "internalType": "uint256",
          "name": "tokenId",
          "type": "uint256"
        }
      ],
      "name": "getLastShootOf",
      "outputs": [
        {
          "internalType": "uint64",
          "name": "",
          "type": "uint64"
        }
      ],
      "stateMutability": "view",
      "type": "function",
      "constant": true
    },
    {
      "inputs": [
        {
          "internalType": "uint32",
          "name": "_newDelay",
          "type": "uint32"
        }
      ],
      "name": "setMinStealDelay",
      "outputs": [],
      "stateMutability": "nonpayable",
      "type": "function"
    },
    {
      "inputs": [
        {
          "internalType": "address",
          "name": "to",
          "type": "address"
        },
        {
          "internalType": "uint256",
          "name": "tokenId",
          "type": "uint256"
        }
      ],
      "name": "offerBall",
      "outputs": [],
      "stateMutability": "nonpayable",
      "type": "function"
    },
    {
      "inputs": [
        {
          "internalType": "uint256",
          "name": "tokenId",
          "type": "uint256"
        }
      ],
      "name": "stealAfter",
      "outputs": [
        {
          "internalType": "uint64",
          "name": "",
          "type": "uint64"
        }
      ],
      "stateMutability": "view",
      "type": "function",
      "constant": true
    },
    {
      "inputs": [
        {
          "internalType": "uint256",
          "name": "tokenId",
          "type": "uint256"
        }
      ],
      "name": "stealBall",
      "outputs": [],
      "stateMutability": "nonpayable",
      "type": "function"
    },
    {
      "inputs": [
        {
          "internalType": "address",
          "name": "to",
          "type": "address"
        },
        {
          "internalType": "uint256",
          "name": "tokenId",
          "type": "uint256"
        }
      ],
      "name": "shotTo",
      "outputs": [],
      "stateMutability": "nonpayable",
      "type": "function"
    },
    {
      "inputs": [
        {
          "internalType": "address",
          "name": "from",
          "type": "address"
        },
        {
          "internalType": "address",
          "name": "to",
          "type": "address"
        },
        {
          "internalType": "uint256",
          "name": "tokenId",
          "type": "uint256"
        }
      ],
      "name": "transferFrom",
      "outputs": [],
      "stateMutability": "nonpayable",
      "type": "function"
    },
    {
      "inputs": [
        {
          "internalType": "address",
          "name": "from",
          "type": "address"
        },
        {
          "internalType": "address",
          "name": "to",
          "type": "address"
        },
        {
          "internalType": "uint256",
          "name": "tokenId",
          "type": "uint256"
        }
      ],
      "name": "safeTransferFrom",
      "outputs": [],
      "stateMutability": "nonpayable",
      "type": "function"
    },
    {
      "inputs": [
        {
          "internalType": "address",
          "name": "from",
          "type": "address"
        },
        {
          "internalType": "address",
          "name": "to",
          "type": "address"
        },
        {
          "internalType": "uint256",
          "name": "tokenId",
          "type": "uint256"
        },
        {
          "internalType": "bytes",
          "name": "_data",
          "type": "bytes"
        }
      ],
      "name": "safeTransferFrom",
      "outputs": [],
      "stateMutability": "nonpayable",
      "type": "function"
    },
    {
      "inputs": [
        {
          "internalType": "uint256",
          "name": "tokenId",
          "type": "uint256"
        }
      ],
      "name": "burn",
      "outputs": [],
      "stateMutability": "nonpayable",
      "type": "function"
    }
  ],
  "bytecode": "0x60806040523480156200001157600080fd5b506040518060400160405280600b81526020017f536f636365722042616c6c0000000000000000000000000000000000000000008152506040518060400160405280600481526020017f42414c4c0000000000000000000000000000000000000000000000000000000081525081600090805190602001906200009692919062000146565b508060019080519060200190620000af92919062000146565b50505033600760046101000a81548173ffffffffffffffffffffffffffffffffffffffff021916908373ffffffffffffffffffffffffffffffffffffffff1602179055506000600760006101000a81548163ffffffff021916908363ffffffff160217905550611c20600760186101000a81548167ffffffffffffffff021916908367ffffffffffffffff1602179055506200025b565b8280546200015490620001f6565b90600052602060002090601f016020900481019282620001785760008555620001c4565b82601f106200019357805160ff1916838001178555620001c4565b82800160010185558215620001c4579182015b82811115620001c3578251825591602001919060010190620001a6565b5b509050620001d39190620001d7565b5090565b5b80821115620001f2576000816000905550600101620001d8565b5090565b600060028204905060018216806200020f57607f821691505b602082108114156200022657620002256200022c565b5b50919050565b7f4e487b7100000000000000000000000000000000000000000000000000000000600052602260045260246000fd5b614789806200026b6000396000f3fe608060405234801561001057600080fd5b50600436106101cf5760003560e01c80636d40590211610104578063b7f408a7116100a2578063e985e9c511610071578063e985e9c514610562578063efbe0d8614610592578063f34a8296146105ae578063fa2c306c146105de576101cf565b8063b7f408a7146104c8578063b815ee7e146104e6578063b88d4fde14610516578063c87b56dd14610532576101cf565b806395d89b41116100de57806395d89b4114610442578063a024e26a14610460578063a22cb46514610490578063aa036697146104ac576101cf565b80636d405902146103b257806370a08231146103e25780638462151c14610412576101cf565b80633bbd3b7e116101715780634c1579b81161014b5780634c1579b8146103065780634f558e79146103365780635da15fb6146103665780636352211e14610382576101cf565b80633bbd3b7e146102b057806342842e0e146102ce57806342966c68146102ea576101cf565b8063095ea7b3116101ad578063095ea7b31461025257806323b872dd1461026e578063294d056d1461028a578063353ca662146102a6576101cf565b806301ffc9a7146101d457806306fdde0314610204578063081812fc14610222575b600080fd5b6101ee60048036038101906101e991906133b5565b6105fc565b6040516101fb9190613e8d565b60405180910390f35b61020c6106de565b6040516102199190613ea8565b60405180910390f35b61023c60048036038101906102379190613407565b610770565b6040516102499190613e04565b60405180910390f35b61026c60048036038101906102679190613379565b6107f5565b005b61028860048036038101906102839190613273565b61090d565b005b6102a4600480360381019061029f9190613379565b610a7c565b005b6102ae610d12565b005b6102b8611068565b6040516102c59190613e04565b60405180910390f35b6102e860048036038101906102e39190613273565b611092565b005b61030460048036038101906102ff9190613407565b6110b2565b005b610320600480360381019061031b919061320e565b611216565b60405161032d91906141ca565b60405180910390f35b610350600480360381019061034b9190613407565b61125f565b60405161035d9190613e8d565b60405180910390f35b610380600480360381019061037b9190613407565b611271565b005b61039c60048036038101906103979190613407565b611525565b6040516103a99190613e04565b60405180910390f35b6103cc60048036038101906103c79190613407565b6115d7565b6040516103d99190614200565b60405180910390f35b6103fc60048036038101906103f7919061320e565b611650565b60405161040991906141ca565b60405180910390f35b61042c6004803603810190610427919061320e565b611708565b6040516104399190613e6b565b60405180910390f35b61044a6118f0565b6040516104579190613ea8565b60405180910390f35b61047a6004803603810190610475919061320e565b611982565b6040516104879190613e8d565b60405180910390f35b6104aa60048036038101906104a5919061333d565b6119d9565b005b6104c660048036038101906104c19190613430565b611b5a565b005b6104d0611c23565b6040516104dd91906141e5565b60405180910390f35b61050060048036038101906104fb9190613407565b611c3d565b60405161050d9190614200565b60405180910390f35b610530600480360381019061052b91906132c2565b611de2565b005b61054c60048036038101906105479190613407565b611f53565b6040516105599190613ea8565b60405180910390f35b61057c60048036038101906105779190613237565b6120a5565b6040516105899190613e8d565b60405180910390f35b6105ac60048036038101906105a79190613379565b612139565b005b6105c860048036038101906105c39190613407565b6122b5565b6040516105d59190613e04565b60405180910390f35b6105e661233a565b6040516105f39190614200565b60405180910390f35b60007f80ac58cd000000000000000000000000000000000000000000000000000000007bffffffffffffffffffffffffffffffffffffffffffffffffffffffff1916827bffffffffffffffffffffffffffffffffffffffffffffffffffffffff191614806106c757507f5b5e139f000000000000000000000000000000000000000000000000000000007bffffffffffffffffffffffffffffffffffffffffffffffffffffffff1916827bffffffffffffffffffffffffffffffffffffffffffffffffffffffff1916145b806106d757506106d682612358565b5b9050919050565b6060600080546106ed90614539565b80601f016020809104026020016040519081016040528092919081815260200182805461071990614539565b80156107665780601f1061073b57610100808354040283529160200191610766565b820191906000526020600020905b81548152906001019060200180831161074957829003601f168201915b5050505050905090565b600061077b826123c2565b6107ba576040517f08c379a00000000000000000000000000000000000000000000000000000000081526004016107b1906140ca565b60405180910390fd5b6004600083815260200190815260200160002060009054906101000a900473ffffffffffffffffffffffffffffffffffffffff169050919050565b600061080082611525565b90508073ffffffffffffffffffffffffffffffffffffffff168373ffffffffffffffffffffffffffffffffffffffff161415610871576040517f08c379a00000000000000000000000000000000000000000000000000000000081526004016108689061414a565b60405180910390fd5b8073ffffffffffffffffffffffffffffffffffffffff1661089061242e565b73ffffffffffffffffffffffffffffffffffffffff1614806108bf57506108be816108b961242e565b6120a5565b5b6108fe576040517f08c379a00000000000000000000000000000000000000000000000000000000081526004016108f590613fca565b60405180910390fd5b6109088383612436565b505050565b60006009600083815260200190815260200160002060009054906101000a900473ffffffffffffffffffffffffffffffffffffffff169050600760049054906101000a900473ffffffffffffffffffffffffffffffffffffffff1673ffffffffffffffffffffffffffffffffffffffff1661098661242e565b73ffffffffffffffffffffffffffffffffffffffff1614806109da57508073ffffffffffffffffffffffffffffffffffffffff166109c261242e565b73ffffffffffffffffffffffffffffffffffffffff16145b806109f257506109f16109eb61242e565b836124ef565b5b610a31576040517f08c379a0000000000000000000000000000000000000000000000000000000008152600401610a289061418a565b60405180910390fd5b610a3c8484846125cd565b426008600084815260200190815260200160002060006101000a81548167ffffffffffffffff021916908367ffffffffffffffff16021790555050505050565b600073ffffffffffffffffffffffffffffffffffffffff168273ffffffffffffffffffffffffffffffffffffffff161415610aec576040517f08c379a0000000000000000000000000000000000000000000000000000000008152600401610ae390613f6a565b60405180910390fd5b610af5816123c2565b610b34576040517f08c379a0000000000000000000000000000000000000000000000000000000008152600401610b2b90613faa565b60405180910390fd5b6000600b60008473ffffffffffffffffffffffffffffffffffffffff1673ffffffffffffffffffffffffffffffffffffffff1681526020019081526020016000205414610bb6576040517f08c379a0000000000000000000000000000000000000000000000000000000008152600401610bad906141aa565b60405180910390fd5b60006009600083815260200190815260200160002060009054906101000a900473ffffffffffffffffffffffffffffffffffffffff1690508073ffffffffffffffffffffffffffffffffffffffff16610c0d61242e565b73ffffffffffffffffffffffffffffffffffffffff1614610c2d57600080fd5b826009600084815260200190815260200160002060006101000a81548173ffffffffffffffffffffffffffffffffffffffff021916908373ffffffffffffffffffffffffffffffffffffffff160217905550600b6000610c8b61242e565b73ffffffffffffffffffffffffffffffffffffffff1673ffffffffffffffffffffffffffffffffffffffff1681526020019081526020016000206000905581600b60008573ffffffffffffffffffffffffffffffffffffffff1673ffffffffffffffffffffffffffffffffffffffff16815260200190815260200160002081905550505050565b637fffffff600760009054906101000a900463ffffffff1663ffffffff1610610d70576040517f08c379a0000000000000000000000000000000000000000000000000000000008152600401610d67906140aa565b60405180910390fd5b6000600b6000610d7e61242e565b73ffffffffffffffffffffffffffffffffffffffff1673ffffffffffffffffffffffffffffffffffffffff1681526020019081526020016000205414610df9576040517f08c379a0000000000000000000000000000000000000000000000000000000008152600401610df09061412a565b60405180910390fd5b600a6000610e0561242e565b73ffffffffffffffffffffffffffffffffffffffff1673ffffffffffffffffffffffffffffffffffffffff16815260200190815260200160002060009054906101000a900460ff1615610e8d576040517f08c379a0000000000000000000000000000000000000000000000000000000008152600401610e849061416a565b60405180910390fd5b60006001600760009054906101000a900463ffffffff16610eae919061434e565b63ffffffff1690506001600760009054906101000a900463ffffffff16610ed5919061434e565b600760006101000a81548163ffffffff021916908363ffffffff160217905550610f06610f0061242e565b82612829565b610f28816040518060600160405280602e8152602001614726602e91396129f7565b610f3061242e565b6009600083815260200190815260200160002060006101000a81548173ffffffffffffffffffffffffffffffffffffffff021916908373ffffffffffffffffffffffffffffffffffffffff160217905550426008600083815260200190815260200160002060006101000a81548167ffffffffffffffff021916908367ffffffffffffffff1602179055506001600a6000610fc961242e565b73ffffffffffffffffffffffffffffffffffffffff1673ffffffffffffffffffffffffffffffffffffffff16815260200190815260200160002060006101000a81548160ff02191690831515021790555080600b600061102761242e565b73ffffffffffffffffffffffffffffffffffffffff1673ffffffffffffffffffffffffffffffffffffffff1681526020019081526020016000208190555050565b6000600760049054906101000a900473ffffffffffffffffffffffffffffffffffffffff16905090565b6110ad83838360405180602001604052806000815250611de2565b505050565b60006009600083815260200190815260200160002060009054906101000a900473ffffffffffffffffffffffffffffffffffffffff1690508073ffffffffffffffffffffffffffffffffffffffff1661110961242e565b73ffffffffffffffffffffffffffffffffffffffff161461115f576040517f08c379a00000000000000000000000000000000000000000000000000000000081526004016111569061418a565b60405180910390fd5b61116882612a6b565b6009600083815260200190815260200160002060006101000a81549073ffffffffffffffffffffffffffffffffffffffff02191690556008600083815260200190815260200160002060006101000a81549067ffffffffffffffff0219169055600b60006111d461242e565b73ffffffffffffffffffffffffffffffffffffffff1673ffffffffffffffffffffffffffffffffffffffff168152602001908152602001600020600090555050565b6000600b60008373ffffffffffffffffffffffffffffffffffffffff1673ffffffffffffffffffffffffffffffffffffffff168152602001908152602001600020549050919050565b600061126a826123c2565b9050919050565b6000600760189054906101000a900467ffffffffffffffff1667ffffffffffffffff16116112d4576040517f08c379a00000000000000000000000000000000000000000000000000000000081526004016112cb90613f4a565b60405180910390fd5b6112dd816123c2565b61131c576040517f08c379a000000000000000000000000000000000000000000000000000000000815260040161131390613faa565b60405180910390fd5b60006009600083815260200190815260200160002060009054906101000a900473ffffffffffffffffffffffffffffffffffffffff169050600061135f83611525565b9050600760049054906101000a900473ffffffffffffffffffffffffffffffffffffffff1673ffffffffffffffffffffffffffffffffffffffff168173ffffffffffffffffffffffffffffffffffffffff16141580156113eb57508173ffffffffffffffffffffffffffffffffffffffff168173ffffffffffffffffffffffffffffffffffffffff1614155b61142a576040517f08c379a00000000000000000000000000000000000000000000000000000000081526004016114219061408a565b60405180910390fd5b60006008600085815260200190815260200160002060009054906101000a900467ffffffffffffffff16905060008142611464919061442b565b9050600760189054906101000a900467ffffffffffffffff1667ffffffffffffffff168167ffffffffffffffff16116114d2576040517f08c379a00000000000000000000000000000000000000000000000000000000081526004016114c990613eca565b60405180910390fd5b6114e4836114de61242e565b876125cd565b426008600087815260200190815260200160002060006101000a81548167ffffffffffffffff021916908367ffffffffffffffff1602179055505050505050565b6000806002600084815260200190815260200160002060009054906101000a900473ffffffffffffffffffffffffffffffffffffffff169050600073ffffffffffffffffffffffffffffffffffffffff168173ffffffffffffffffffffffffffffffffffffffff1614156115ce576040517f08c379a00000000000000000000000000000000000000000000000000000000081526004016115c59061400a565b60405180910390fd5b80915050919050565b60006115e2826123c2565b611621576040517f08c379a000000000000000000000000000000000000000000000000000000000815260040161161890613faa565b60405180910390fd5b6008600083815260200190815260200160002060009054906101000a900467ffffffffffffffff169050919050565b60008073ffffffffffffffffffffffffffffffffffffffff168273ffffffffffffffffffffffffffffffffffffffff1614156116c1576040517f08c379a00000000000000000000000000000000000000000000000000000000081526004016116b890613fea565b60405180910390fd5b600360008373ffffffffffffffffffffffffffffffffffffffff1673ffffffffffffffffffffffffffffffffffffffff168152602001908152602001600020549050919050565b6060600061171583611650565b9050600081141561179857600067ffffffffffffffff811115611761577f4e487b7100000000000000000000000000000000000000000000000000000000600052604160045260246000fd5b60405190808252806020026020018201604052801561178f5781602001602082028036833780820191505090505b509150506118eb565b60008167ffffffffffffffff8111156117da577f4e487b7100000000000000000000000000000000000000000000000000000000600052604160045260246000fd5b6040519080825280602002602001820160405280156118085781602001602082028036833780820191505090505b509050600080600190505b600760009054906101000a900463ffffffff1663ffffffff16811115801561183a57508382105b156118e3578573ffffffffffffffffffffffffffffffffffffffff1661185f82611525565b73ffffffffffffffffffffffffffffffffffffffff1614156118d057808383815181106118b5577f4e487b7100000000000000000000000000000000000000000000000000000000600052603260045260246000fd5b60200260200101818152505081806118cc9061456b565b9250505b80806118db9061456b565b915050611813565b829450505050505b919050565b6060600180546118ff90614539565b80601f016020809104026020016040519081016040528092919081815260200182805461192b90614539565b80156119785780601f1061194d57610100808354040283529160200191611978565b820191906000526020600020905b81548152906001019060200180831161195b57829003601f168201915b5050505050905090565b6000600a60008373ffffffffffffffffffffffffffffffffffffffff1673ffffffffffffffffffffffffffffffffffffffff16815260200190815260200160002060009054906101000a900460ff16159050919050565b6119e161242e565b73ffffffffffffffffffffffffffffffffffffffff168273ffffffffffffffffffffffffffffffffffffffff161415611a4f576040517f08c379a0000000000000000000000000000000000000000000000000000000008152600401611a4690613f8a565b60405180910390fd5b8060056000611a5c61242e565b73ffffffffffffffffffffffffffffffffffffffff1673ffffffffffffffffffffffffffffffffffffffff16815260200190815260200160002060008473ffffffffffffffffffffffffffffffffffffffff1673ffffffffffffffffffffffffffffffffffffffff16815260200190815260200160002060006101000a81548160ff0219169083151502179055508173ffffffffffffffffffffffffffffffffffffffff16611b0961242e565b73ffffffffffffffffffffffffffffffffffffffff167f17307eab39ab6107e8899845ad3d59bd9653f200f220920489ca2b5937696c3183604051611b4e9190613e8d565b60405180910390a35050565b600760049054906101000a900473ffffffffffffffffffffffffffffffffffffffff1673ffffffffffffffffffffffffffffffffffffffff16611b9b61242e565b73ffffffffffffffffffffffffffffffffffffffff1614611bf1576040517f08c379a0000000000000000000000000000000000000000000000000000000008152600401611be890613eea565b60405180910390fd5b8063ffffffff16600760186101000a81548167ffffffffffffffff021916908367ffffffffffffffff16021790555050565b6000600760009054906101000a900463ffffffff16905090565b6000611c48826123c2565b611c87576040517f08c379a0000000000000000000000000000000000000000000000000000000008152600401611c7e90613faa565b60405180910390fd5b60006009600084815260200190815260200160002060009054906101000a900473ffffffffffffffffffffffffffffffffffffffff1690506000611cca84611525565b90506000600760189054906101000a900467ffffffffffffffff1667ffffffffffffffff16111580611d495750600760049054906101000a900473ffffffffffffffffffffffffffffffffffffffff1673ffffffffffffffffffffffffffffffffffffffff168173ffffffffffffffffffffffffffffffffffffffff16145b80611d7f57508173ffffffffffffffffffffffffffffffffffffffff168173ffffffffffffffffffffffffffffffffffffffff16145b15611d8f57600092505050611ddd565b600760189054906101000a900467ffffffffffffffff166008600086815260200190815260200160002060009054906101000a900467ffffffffffffffff16611dd89190614388565b925050505b919050565b60006009600084815260200190815260200160002060009054906101000a900473ffffffffffffffffffffffffffffffffffffffff169050600760049054906101000a900473ffffffffffffffffffffffffffffffffffffffff1673ffffffffffffffffffffffffffffffffffffffff16611e5b61242e565b73ffffffffffffffffffffffffffffffffffffffff161480611eaf57508073ffffffffffffffffffffffffffffffffffffffff16611e9761242e565b73ffffffffffffffffffffffffffffffffffffffff16145b80611ec75750611ec6611ec061242e565b846124ef565b5b611f06576040517f08c379a0000000000000000000000000000000000000000000000000000000008152600401611efd9061418a565b60405180910390fd5b611f1285858585612abe565b426008600085815260200190815260200160002060006101000a81548167ffffffffffffffff021916908367ffffffffffffffff1602179055505050505050565b6060611f5e826123c2565b611f9d576040517f08c379a0000000000000000000000000000000000000000000000000000000008152600401611f949061406a565b60405180910390fd5b6000600660008481526020019081526020016000208054611fbd90614539565b80601f0160208091040260200160405190810160405280929190818152602001828054611fe990614539565b80156120365780601f1061200b57610100808354040283529160200191612036565b820191906000526020600020905b81548152906001019060200180831161201957829003601f168201915b505050505090506000612047612b1a565b905060008151141561205d5781925050506120a0565b60008251111561209257808260405160200161207a929190613de0565b604051602081830303815290604052925050506120a0565b61209b84612b31565b925050505b919050565b6000600560008473ffffffffffffffffffffffffffffffffffffffff1673ffffffffffffffffffffffffffffffffffffffff16815260200190815260200160002060008373ffffffffffffffffffffffffffffffffffffffff1673ffffffffffffffffffffffffffffffffffffffff16815260200190815260200160002060009054906101000a900460ff16905092915050565b60006009600083815260200190815260200160002060009054906101000a900473ffffffffffffffffffffffffffffffffffffffff169050600760049054906101000a900473ffffffffffffffffffffffffffffffffffffffff1673ffffffffffffffffffffffffffffffffffffffff166121b261242e565b73ffffffffffffffffffffffffffffffffffffffff16148061220657508073ffffffffffffffffffffffffffffffffffffffff166121ee61242e565b73ffffffffffffffffffffffffffffffffffffffff16145b8061221e575061221d61221761242e565b836124ef565b5b61225d576040517f08c379a00000000000000000000000000000000000000000000000000000000081526004016122549061418a565b60405180910390fd5b600061226883611525565b90506122758185856125cd565b426008600085815260200190815260200160002060006101000a81548167ffffffffffffffff021916908367ffffffffffffffff16021790555050505050565b60006122c0826123c2565b6122ff576040517f08c379a00000000000000000000000000000000000000000000000000000000081526004016122f690613faa565b60405180910390fd5b6009600083815260200190815260200160002060009054906101000a900473ffffffffffffffffffffffffffffffffffffffff169050919050565b6000600760189054906101000a900467ffffffffffffffff16905090565b60007f01ffc9a7000000000000000000000000000000000000000000000000000000007bffffffffffffffffffffffffffffffffffffffffffffffffffffffff1916827bffffffffffffffffffffffffffffffffffffffffffffffffffffffff1916149050919050565b60008073ffffffffffffffffffffffffffffffffffffffff166002600084815260200190815260200160002060009054906101000a900473ffffffffffffffffffffffffffffffffffffffff1673ffffffffffffffffffffffffffffffffffffffff1614159050919050565b600033905090565b816004600083815260200190815260200160002060006101000a81548173ffffffffffffffffffffffffffffffffffffffff021916908373ffffffffffffffffffffffffffffffffffffffff160217905550808273ffffffffffffffffffffffffffffffffffffffff166124a983611525565b73ffffffffffffffffffffffffffffffffffffffff167f8c5be1e5ebec7d5bd14f71427d1e84f3dd0314c0f7b2291e5b200ac8c7c3b92560405160405180910390a45050565b60006124fa826123c2565b612539576040517f08c379a000000000000000000000000000000000000000000000000000000000815260040161253090613faa565b60405180910390fd5b600061254483611525565b90508073ffffffffffffffffffffffffffffffffffffffff168473ffffffffffffffffffffffffffffffffffffffff1614806125b357508373ffffffffffffffffffffffffffffffffffffffff1661259b84610770565b73ffffffffffffffffffffffffffffffffffffffff16145b806125c457506125c381856120a5565b5b91505092915050565b8273ffffffffffffffffffffffffffffffffffffffff166125ed82611525565b73ffffffffffffffffffffffffffffffffffffffff1614612643576040517f08c379a000000000000000000000000000000000000000000000000000000000815260040161263a906140ea565b60405180910390fd5b600073ffffffffffffffffffffffffffffffffffffffff168273ffffffffffffffffffffffffffffffffffffffff1614156126b3576040517f08c379a00000000000000000000000000000000000000000000000000000000081526004016126aa90613f6a565b60405180910390fd5b6126be838383612bd8565b6126c9600082612436565b6001600360008573ffffffffffffffffffffffffffffffffffffffff1673ffffffffffffffffffffffffffffffffffffffff168152602001908152602001600020600082825461271991906143f7565b925050819055506001600360008473ffffffffffffffffffffffffffffffffffffffff1673ffffffffffffffffffffffffffffffffffffffff168152602001908152602001600020600082825461277091906142f8565b92505081905550816002600083815260200190815260200160002060006101000a81548173ffffffffffffffffffffffffffffffffffffffff021916908373ffffffffffffffffffffffffffffffffffffffff160217905550808273ffffffffffffffffffffffffffffffffffffffff168473ffffffffffffffffffffffffffffffffffffffff167fddf252ad1be2c89b69c2b068fc378daa952ba7f163c4a11628f55a4df523b3ef60405160405180910390a4505050565b600073ffffffffffffffffffffffffffffffffffffffff168273ffffffffffffffffffffffffffffffffffffffff161415612899576040517f08c379a00000000000000000000000000000000000000000000000000000000081526004016128909061404a565b60405180910390fd5b6128a2816123c2565b156128e2576040517f08c379a00000000000000000000000000000000000000000000000000000000081526004016128d990613f2a565b60405180910390fd5b6128ee60008383612bd8565b6001600360008473ffffffffffffffffffffffffffffffffffffffff1673ffffffffffffffffffffffffffffffffffffffff168152602001908152602001600020600082825461293e91906142f8565b92505081905550816002600083815260200190815260200160002060006101000a81548173ffffffffffffffffffffffffffffffffffffffff021916908373ffffffffffffffffffffffffffffffffffffffff160217905550808273ffffffffffffffffffffffffffffffffffffffff16600073ffffffffffffffffffffffffffffffffffffffff167fddf252ad1be2c89b69c2b068fc378daa952ba7f163c4a11628f55a4df523b3ef60405160405180910390a45050565b612a00826123c2565b612a3f576040517f08c379a0000000000000000000000000000000000000000000000000000000008152600401612a369061402a565b60405180910390fd5b80600660008481526020019081526020016000209080519060200190612a66929190613045565b505050565b612a7481612bdd565b6000600660008381526020019081526020016000208054612a9490614539565b905014612abb57600660008281526020019081526020016000206000612aba91906130cb565b5b50565b612ac98484846125cd565b612ad584848484612cee565b612b14576040517f08c379a0000000000000000000000000000000000000000000000000000000008152600401612b0b90613f0a565b60405180910390fd5b50505050565b606060405180602001604052806000815250905090565b6060612b3c826123c2565b612b7b576040517f08c379a0000000000000000000000000000000000000000000000000000000008152600401612b729061410a565b60405180910390fd5b6000612b85612b1a565b90506000815111612ba55760405180602001604052806000815250612bd0565b80612baf84612e85565b604051602001612bc0929190613de0565b6040516020818303038152906040525b915050919050565b505050565b6000612be882611525565b9050612bf681600084612bd8565b612c01600083612436565b6001600360008373ffffffffffffffffffffffffffffffffffffffff1673ffffffffffffffffffffffffffffffffffffffff1681526020019081526020016000206000828254612c5191906143f7565b925050819055506002600083815260200190815260200160002060006101000a81549073ffffffffffffffffffffffffffffffffffffffff021916905581600073ffffffffffffffffffffffffffffffffffffffff168273ffffffffffffffffffffffffffffffffffffffff167fddf252ad1be2c89b69c2b068fc378daa952ba7f163c4a11628f55a4df523b3ef60405160405180910390a45050565b6000612d0f8473ffffffffffffffffffffffffffffffffffffffff16613032565b15612e78578373ffffffffffffffffffffffffffffffffffffffff1663150b7a02612d3861242e565b8786866040518563ffffffff1660e01b8152600401612d5a9493929190613e1f565b602060405180830381600087803b158015612d7457600080fd5b505af1925050508015612da557506040513d601f19601f82011682018060405250810190612da291906133de565b60015b612e28573d8060008114612dd5576040519150601f19603f3d011682016040523d82523d6000602084013e612dda565b606091505b50600081511415612e20576040517f08c379a0000000000000000000000000000000000000000000000000000000008152600401612e1790613f0a565b60405180910390fd5b805181602001fd5b63150b7a0260e01b7bffffffffffffffffffffffffffffffffffffffffffffffffffffffff1916817bffffffffffffffffffffffffffffffffffffffffffffffffffffffff191614915050612e7d565b600190505b949350505050565b60606000821415612ecd576040518060400160405280600181526020017f3000000000000000000000000000000000000000000000000000000000000000815250905061302d565b600082905060005b60008214612eff578080612ee89061456b565b915050600a82612ef891906143c6565b9150612ed5565b60008167ffffffffffffffff811115612f41577f4e487b7100000000000000000000000000000000000000000000000000000000600052604160045260246000fd5b6040519080825280601f01601f191660200182016040528015612f735781602001600182028036833780820191505090505b5090505b6000851461302657600182612f8c91906143f7565b9150600a85612f9b91906145b4565b6030612fa791906142f8565b60f81b818381518110612fe3577f4e487b7100000000000000000000000000000000000000000000000000000000600052603260045260246000fd5b60200101907effffffffffffffffffffffffffffffffffffffffffffffffffffffffffffff1916908160001a905350600a8561301f91906143c6565b9450612f77565b8093505050505b919050565b600080823b905060008111915050919050565b82805461305190614539565b90600052602060002090601f01602090048101928261307357600085556130ba565b82601f1061308c57805160ff19168380011785556130ba565b828001600101855582156130ba579182015b828111156130b957825182559160200191906001019061309e565b5b5090506130c7919061310b565b5090565b5080546130d790614539565b6000825580601f106130e95750613108565b601f016020900490600052602060002090810190613107919061310b565b5b50565b5b8082111561312457600081600090555060010161310c565b5090565b600061313b6131368461424c565b61421b565b90508281526020810184848401111561315357600080fd5b61315e8482856144f7565b509392505050565b600081359050613175816146b2565b92915050565b60008135905061318a816146c9565b92915050565b60008135905061319f816146e0565b92915050565b6000815190506131b4816146e0565b92915050565b600082601f8301126131cb57600080fd5b81356131db848260208601613128565b91505092915050565b6000813590506131f3816146f7565b92915050565b6000813590506132088161470e565b92915050565b60006020828403121561322057600080fd5b600061322e84828501613166565b91505092915050565b6000806040838503121561324a57600080fd5b600061325885828601613166565b925050602061326985828601613166565b9150509250929050565b60008060006060848603121561328857600080fd5b600061329686828701613166565b93505060206132a786828701613166565b92505060406132b8868287016131e4565b9150509250925092565b600080600080608085870312156132d857600080fd5b60006132e687828801613166565b94505060206132f787828801613166565b9350506040613308878288016131e4565b925050606085013567ffffffffffffffff81111561332557600080fd5b613331878288016131ba565b91505092959194509250565b6000806040838503121561335057600080fd5b600061335e85828601613166565b925050602061336f8582860161317b565b9150509250929050565b6000806040838503121561338c57600080fd5b600061339a85828601613166565b92505060206133ab858286016131e4565b9150509250929050565b6000602082840312156133c757600080fd5b60006133d584828501613190565b91505092915050565b6000602082840312156133f057600080fd5b60006133fe848285016131a5565b91505092915050565b60006020828403121561341957600080fd5b6000613427848285016131e4565b91505092915050565b60006020828403121561344257600080fd5b6000613450848285016131f9565b91505092915050565b60006134658383613da4565b60208301905092915050565b61347a8161445f565b82525050565b600061348b8261428c565b61349581856142ba565b93506134a08361427c565b8060005b838110156134d15781516134b88882613459565b97506134c3836142ad565b9250506001810190506134a4565b5085935050505092915050565b6134e781614471565b82525050565b60006134f882614297565b61350281856142cb565b9350613512818560208601614506565b61351b816146a1565b840191505092915050565b6000613531826142a2565b61353b81856142dc565b935061354b818560208601614506565b613554816146a1565b840191505092915050565b600061356a826142a2565b61357481856142ed565b9350613584818560208601614506565b80840191505092915050565b600061359d600f836142dc565b91507f546865667420746f6f206561726c7900000000000000000000000000000000006000830152602082019050919050565b60006135dd601a836142dc565b91507f4f6e6c7920726566657265652063616e206368616e67652069740000000000006000830152602082019050919050565b600061361d6032836142dc565b91507f4552433732313a207472616e7366657220746f206e6f6e20455243373231526560008301527f63656976657220696d706c656d656e74657200000000000000000000000000006020830152604082019050919050565b6000613683601c836142dc565b91507f4552433732313a20746f6b656e20616c7265616479206d696e746564000000006000830152602082019050919050565b60006136c36012836142dc565b91507f537465616c206e6f7420616374697661746500000000000000000000000000006000830152602082019050919050565b60006137036024836142dc565b91507f4552433732313a207472616e7366657220746f20746865207a65726f2061646460008301527f72657373000000000000000000000000000000000000000000000000000000006020830152604082019050919050565b60006137696019836142dc565b91507f4552433732313a20617070726f766520746f2063616c6c6572000000000000006000830152602082019050919050565b60006137a9602c836142dc565b91507f4552433732313a206f70657261746f7220717565727920666f72206e6f6e657860008301527f697374656e7420746f6b656e00000000000000000000000000000000000000006020830152604082019050919050565b600061380f6038836142dc565b91507f4552433732313a20617070726f76652063616c6c6572206973206e6f74206f7760008301527f6e6572206e6f7220617070726f76656420666f7220616c6c00000000000000006020830152604082019050919050565b6000613875602a836142dc565b91507f4552433732313a2062616c616e636520717565727920666f7220746865207a6560008301527f726f2061646472657373000000000000000000000000000000000000000000006020830152604082019050919050565b60006138db6029836142dc565b91507f4552433732313a206f776e657220717565727920666f72206e6f6e657869737460008301527f656e7420746f6b656e00000000000000000000000000000000000000000000006020830152604082019050919050565b6000613941602e836142dc565b91507f45524337323155524953746f726167653a2055524920736574206f66206e6f6e60008301527f6578697374656e7420746f6b656e0000000000000000000000000000000000006020830152604082019050919050565b60006139a76020836142dc565b91507f4552433732313a206d696e7420746f20746865207a65726f20616464726573736000830152602082019050919050565b60006139e76031836142dc565b91507f45524337323155524953746f726167653a2055524920717565727920666f722060008301527f6e6f6e6578697374656e7420746f6b656e0000000000000000000000000000006020830152604082019050919050565b6000613a4d6037836142dc565b91507f4552433732313a207472616e736665722063616c6c6572206973206e6f74206d60008301527f6173746572206f776e6572206e6f7220726566657265650000000000000000006020830152604082019050919050565b6000613ab3600c836142dc565b91507f4e6f206d6f72652062616c6c00000000000000000000000000000000000000006000830152602082019050919050565b6000613af3602c836142dc565b91507f4552433732313a20617070726f76656420717565727920666f72206e6f6e657860008301527f697374656e7420746f6b656e00000000000000000000000000000000000000006020830152604082019050919050565b6000613b596029836142dc565b91507f4552433732313a207472616e73666572206f6620746f6b656e2074686174206960008301527f73206e6f74206f776e00000000000000000000000000000000000000000000006020830152604082019050919050565b6000613bbf602f836142dc565b91507f4552433732314d657461646174613a2055524920717565727920666f72206e6f60008301527f6e6578697374656e7420746f6b656e00000000000000000000000000000000006020830152604082019050919050565b6000613c256017836142dc565b91507f596f7520616c7265616479206861766520612062616c6c0000000000000000006000830152602082019050919050565b6000613c656021836142dc565b91507f4552433732313a20617070726f76616c20746f2063757272656e74206f776e6560008301527f72000000000000000000000000000000000000000000000000000000000000006020830152604082019050919050565b6000613ccb6017836142dc565b91507f596f7520616c7265616479206d696e7420612062616c6c0000000000000000006000830152602082019050919050565b6000613d0b6031836142dc565b91507f4552433732313a207472616e736665722063616c6c6572206973206e6f74206f60008301527f776e6572206e6f7220617070726f7665640000000000000000000000000000006020830152604082019050919050565b6000613d716020836142dc565b91507f44657374696e61746169726520616c7265616479206861766520612062616c6c6000830152602082019050919050565b613dad816144c9565b82525050565b613dbc816144c9565b82525050565b613dcb816144d3565b82525050565b613dda816144e3565b82525050565b6000613dec828561355f565b9150613df8828461355f565b91508190509392505050565b6000602082019050613e196000830184613471565b92915050565b6000608082019050613e346000830187613471565b613e416020830186613471565b613e4e6040830185613db3565b8181036060830152613e6081846134ed565b905095945050505050565b60006020820190508181036000830152613e858184613480565b905092915050565b6000602082019050613ea260008301846134de565b92915050565b60006020820190508181036000830152613ec28184613526565b905092915050565b60006020820190508181036000830152613ee381613590565b9050919050565b60006020820190508181036000830152613f03816135d0565b9050919050565b60006020820190508181036000830152613f2381613610565b9050919050565b60006020820190508181036000830152613f4381613676565b9050919050565b60006020820190508181036000830152613f63816136b6565b9050919050565b60006020820190508181036000830152613f83816136f6565b9050919050565b60006020820190508181036000830152613fa38161375c565b9050919050565b60006020820190508181036000830152613fc38161379c565b9050919050565b60006020820190508181036000830152613fe381613802565b9050919050565b6000602082019050818103600083015261400381613868565b9050919050565b60006020820190508181036000830152614023816138ce565b9050919050565b6000602082019050818103600083015261404381613934565b9050919050565b600060208201905081810360008301526140638161399a565b9050919050565b60006020820190508181036000830152614083816139da565b9050919050565b600060208201905081810360008301526140a381613a40565b9050919050565b600060208201905081810360008301526140c381613aa6565b9050919050565b600060208201905081810360008301526140e381613ae6565b9050919050565b6000602082019050818103600083015261410381613b4c565b9050919050565b6000602082019050818103600083015261412381613bb2565b9050919050565b6000602082019050818103600083015261414381613c18565b9050919050565b6000602082019050818103600083015261416381613c58565b9050919050565b6000602082019050818103600083015261418381613cbe565b9050919050565b600060208201905081810360008301526141a381613cfe565b9050919050565b600060208201905081810360008301526141c381613d64565b9050919050565b60006020820190506141df6000830184613db3565b92915050565b60006020820190506141fa6000830184613dc2565b92915050565b60006020820190506142156000830184613dd1565b92915050565b6000604051905081810181811067ffffffffffffffff8211171561424257614241614672565b5b8060405250919050565b600067ffffffffffffffff82111561426757614266614672565b5b601f19601f8301169050602081019050919050565b6000819050602082019050919050565b600081519050919050565b600081519050919050565b600081519050919050565b6000602082019050919050565b600082825260208201905092915050565b600082825260208201905092915050565b600082825260208201905092915050565b600081905092915050565b6000614303826144c9565b915061430e836144c9565b9250827fffffffffffffffffffffffffffffffffffffffffffffffffffffffffffffffff03821115614343576143426145e5565b5b828201905092915050565b6000614359826144d3565b9150614364836144d3565b92508263ffffffff0382111561437d5761437c6145e5565b5b828201905092915050565b6000614393826144e3565b915061439e836144e3565b92508267ffffffffffffffff038211156143bb576143ba6145e5565b5b828201905092915050565b60006143d1826144c9565b91506143dc836144c9565b9250826143ec576143eb614614565b5b828204905092915050565b6000614402826144c9565b915061440d836144c9565b9250828210156144205761441f6145e5565b5b828203905092915050565b6000614436826144e3565b9150614441836144e3565b925082821015614454576144536145e5565b5b828203905092915050565b600061446a826144a9565b9050919050565b60008115159050919050565b60007fffffffff0000000000000000000000000000000000000000000000000000000082169050919050565b600073ffffffffffffffffffffffffffffffffffffffff82169050919050565b6000819050919050565b600063ffffffff82169050919050565b600067ffffffffffffffff82169050919050565b82818337600083830152505050565b60005b83811015614524578082015181840152602081019050614509565b83811115614533576000848401525b50505050565b6000600282049050600182168061455157607f821691505b6020821081141561456557614564614643565b5b50919050565b6000614576826144c9565b91507fffffffffffffffffffffffffffffffffffffffffffffffffffffffffffffffff8214156145a9576145a86145e5565b5b600182019050919050565b60006145bf826144c9565b91506145ca836144c9565b9250826145da576145d9614614565b5b828206905092915050565b7f4e487b7100000000000000000000000000000000000000000000000000000000600052601160045260246000fd5b7f4e487b7100000000000000000000000000000000000000000000000000000000600052601260045260246000fd5b7f4e487b7100000000000000000000000000000000000000000000000000000000600052602260045260246000fd5b7f4e487b7100000000000000000000000000000000000000000000000000000000600052604160045260246000fd5b6000601f19601f8301169050919050565b6146bb8161445f565b81146146c657600080fd5b50565b6146d281614471565b81146146dd57600080fd5b50565b6146e98161447d565b81146146f457600080fd5b50565b614700816144c9565b811461470b57600080fd5b50565b614717816144d3565b811461472257600080fd5b5056fe516d617569435a52667138766d473377534b63594e794a385a524c414d38374b556f48476b6a36565a6d627a4761a2646970667358221220c9ebc6972e54634e65ff2422cda5f42373955721ab23368ae2a2e1ff123bb33664736f6c63430008000033",
  "immutableReferences": {},
  "source": "// SPDX-License-Identifier: MIT\npragma solidity >=0.4.22 <0.9.0;\n\nimport \"./ERC721URIStorage.sol\";\n\ncontract CryptoSoccerBall is ERC721URIStorage {\n\n    uint32 nbBall;\n\n    address referee;\n\n    uint64 minStealDelay;\n\n    // Mapping from token ID to last shoot timestamp\n    mapping (uint256 => uint64) private _lastShot;\n\n    // Mapping from token ID to master owner address\n    mapping (uint256 => address) private _masterOwner;\n\n    // Mapping from owner to boolean\n    mapping (address => bool) private _alreadyMint;\n\n    mapping (address => uint256) private _haveMaster;\n\n\n    /**\n     * @dev The account that deploy this contact become the match referee.\n     *\n     */\n    constructor() ERC721(\"Soccer Ball\", \"BALL\") {\n        referee = msg.sender;\n        nbBall = 0;\n        minStealDelay = 2 hours;\n    }\n\n    /**\n     * @dev Everybody can create one ball. The account that create the ball become the masterOwner.\n     *\n     */\n    function createSoccerBall() public {\n        require(nbBall < 2**31 - 1, \"No more ball\");\n        require(_haveMaster[_msgSender()] == 0, \"You already have a ball\");\n        require(!_alreadyMint[_msgSender()], \"You already mint a ball\");\n        uint _id = nbBall + 1;\n        nbBall = nbBall + 1;\n        _mint(_msgSender(), _id);\n        _setTokenURI(_id, \"QmauiCZRfq8vmG3wSKcYNyJ8ZRLAM87KUoHGkj6VZmbzGa\");\n        _masterOwner[_id] = _msgSender();\n        _lastShot[_id] = uint64(block.timestamp);\n        _alreadyMint[_msgSender()] = true;\n        _haveMaster[_msgSender()] = _id;\n    }\n\n    /**\n     * @dev test if one user already create a ball.\n     *\n     */\n    function canCreateBall(address user) public view virtual returns (bool) {\n        return !_alreadyMint[user];\n    }\n\n    /**\n     * @dev get the number of ball created since the beginning.\n     *\n     */\n    function getNbBall() public view virtual returns (uint32) {\n        return nbBall;\n    }\n\n    function exists(uint256 tokenId) public view virtual returns (bool) {\n        return _exists(tokenId);\n    }\n\n    /**\n     * @dev get the ball id if user is a master of one ball.\n     *\n     */\n    function getMasterOwnerBallOf(address user) public view virtual returns (uint256) {\n        return _haveMaster[user];\n    }\n\n    function getMinStealDelay() public view virtual returns (uint64) {\n        return minStealDelay;\n    }\n\n    function getReferee() public view virtual returns (address) {\n        return referee;\n    }\n\n   function tokensOfOwner(address _owner) external view returns(uint256[] memory ownerTokens) {\n        uint256 tokenCount = balanceOf(_owner);\n\n        if (tokenCount == 0) {\n            // Return an empty array\n            return new uint256[](0);\n        } else {\n            uint256[] memory result = new uint256[](tokenCount);\n            uint256 resultIndex = 0;\n            uint256 tokenId;\n\n            for (tokenId = 1; tokenId <= nbBall && resultIndex < tokenCount; tokenId++) {\n                if (ERC721.ownerOf(tokenId) == _owner) {\n                    result[resultIndex] = tokenId;\n                    resultIndex++;\n                }\n            }\n\n            return result;\n        }\n    }\n\n\n    /**\n     * @dev return the master owner of a ball.\n     *\n     */\n    function masterOwnerOf(uint256 tokenId) public view virtual returns (address) {\n        require(_exists(tokenId), \"ERC721: operator query for nonexistent token\");\n        return _masterOwner[tokenId];\n    }\n\n    /**\n     * @dev return last shoot date of a bollon.\n     *\n     */\n    function getLastShootOf(uint256 tokenId) public view virtual returns (uint64) {\n        require(_exists(tokenId), \"ERC721: operator query for nonexistent token\");\n        return _lastShot[tokenId];\n    }\n\n    /**\n     * @dev Change global minStealDelay.\n     *\n     * Requirements:\n     *\n     * - only referee can change it.\n     */\n    function setMinStealDelay(uint32 _newDelay) public virtual {\n        require(_msgSender() == referee, \"Only referee can change it\");\n        minStealDelay = _newDelay;\n    }\n\n    /**\n     * @dev Give the master owner role of a ball to someone else.\n     *\n     * Requirements:\n     *\n     * - only current master owner can transfert this role\n     */\n    function offerBall(address to, uint256 tokenId) public virtual {\n        require(to != address(0), \"ERC721: transfer to the zero address\");\n        require(_exists(tokenId), \"ERC721: operator query for nonexistent token\");\n        require(_haveMaster[to] == 0, \"Destinataire already have a ball\");\n        address ballOwner = _masterOwner[tokenId];\n        require(_msgSender() == ballOwner);\n        _masterOwner[tokenId] = to;\n        delete _haveMaster[_msgSender()];\n        _haveMaster[to] = tokenId;\n    }\n\n\n    /**\n     * @dev timestamp after you can steal ball. 0 if you can't.\n     *\n     */\n    function stealAfter(uint256 tokenId) public view virtual returns (uint64) {\n        require(_exists(tokenId), \"ERC721: operator query for nonexistent token\");\n        address master = _masterOwner[tokenId];\n        address owner = ERC721.ownerOf(tokenId);\n        if (minStealDelay <= 0 || owner == referee || owner == master) {\n            return 0;\n        }\n        return _lastShot[tokenId] + minStealDelay;\n    }\n\n\n    /**\n     * @dev Anybody can steal a ball.\n     *\n     * you can't steal the ball:\n     *\n     * - if the current owner is the master owner\n     * - if the current owner is the referee\n     * - if the last shot was less than minStealDelay old\n     */\n    function stealBall(uint256 tokenId) public virtual {\n        require(minStealDelay > 0, \"Steal not activate\");\n        require(_exists(tokenId), \"ERC721: operator query for nonexistent token\");\n        address master = _masterOwner[tokenId];\n        address owner = ERC721.ownerOf(tokenId);\n        require(owner != referee && owner != master, \"ERC721: transfer caller is not master owner nor referee\");\n        uint64 lastShot = _lastShot[tokenId];\n        uint64 delta = uint64(block.timestamp) - lastShot;\n        require(delta > minStealDelay, \"Theft too early\");\n        _transfer(owner, _msgSender(), tokenId);\n        _lastShot[tokenId] = uint64(block.timestamp);\n    }\n\n    /**\n     * @dev Shoot the ball to another player.\n     *\n     * Requirements:\n     *\n     * - only referee, owner master and token owner can transfert the ball\n     */\n    function shotTo(address to, uint256 tokenId) public virtual {\n        address master = _masterOwner[tokenId];\n        require(_msgSender() == referee || _msgSender() == master || _isApprovedOrOwner(_msgSender(), tokenId), \"ERC721: transfer caller is not owner nor approved\");\n        address owner = ERC721.ownerOf(tokenId);\n        _transfer(owner, to, tokenId);\n        _lastShot[tokenId] = uint64(block.timestamp);\n    }\n\n\n    /**\n     * @dev Shoot the ball to another player.\n     *\n     * Requirements:\n     *\n     * - only referee, owner master and token owner can transfert the ball\n     */\n    function transferFrom(address from, address to, uint256 tokenId) public virtual override {\n        address master = _masterOwner[tokenId];\n        require(_msgSender() == referee || _msgSender() == master || _isApprovedOrOwner(_msgSender(), tokenId), \"ERC721: transfer caller is not owner nor approved\");\n        _transfer(from, to, tokenId);\n        _lastShot[tokenId] = uint64(block.timestamp);\n    }\n\n    /**\n     * @dev Shoot the ball to another player.\n     *\n     * Requirements:\n     *\n     * - only referee, owner master and token owner can transfert the ball\n     */\n    function safeTransferFrom(address from, address to, uint256 tokenId, bytes memory _data) public virtual override {\n        address master = _masterOwner[tokenId];\n        require(_msgSender() == referee || _msgSender() == master || _isApprovedOrOwner(_msgSender(), tokenId), \"ERC721: transfer caller is not owner nor approved\");\n        _safeTransfer(from, to, tokenId, _data);\n        _lastShot[tokenId] = uint64(block.timestamp);\n    }\n\n    /**\n     * @dev Destroy a ball.\n     *\n     * Requirements:\n     *\n     * - only master owner can burn the ball\n     */\n    function burn(uint256 tokenId) public virtual {\n        //solhint-disable-next-line max-line-length\n        address master = _masterOwner[tokenId];\n        require(_msgSender() == master, \"ERC721: transfer caller is not owner nor approved\");\n        _burn(tokenId);\n        delete _masterOwner[tokenId];\n        delete _lastShot[tokenId];\n        delete _haveMaster[_msgSender()];\n    }\n}\n",
  "sourcePath": "/Users/samuel/Documents/p2p/cryptoSoccerBall/contracts/CryptoSoccerBall.sol",
  "compiler": {
    "name": "solc",
    "version": "0.8.0+commit.c7dfd78e.Emscripten.clang"
  },
  "schemaVersion": "3.3.4",
  "updatedAt": "2021-04-04T18:30:01.173Z",
  "networkType": "ethereum",
  "devdoc": {
    "kind": "dev",
    "methods": {
      "approve(address,uint256)": {
        "details": "See {IERC721-approve}."
      },
      "balanceOf(address)": {
        "details": "See {IERC721-balanceOf}."
      },
      "burn(uint256)": {
        "details": "Destroy a ball. Requirements: - only master owner can burn the ball"
      },
      "canCreateBall(address)": {
        "details": "test if one user already create a ball."
      },
      "constructor": {
        "details": "The account that deploy this contact become the match referee."
      },
      "createSoccerBall()": {
        "details": "Everybody can create one ball. The account that create the ball become the masterOwner."
      },
      "getApproved(uint256)": {
        "details": "See {IERC721-getApproved}."
      },
      "getLastShootOf(uint256)": {
        "details": "return last shoot date of a bollon."
      },
      "getMasterOwnerBallOf(address)": {
        "details": "get the ball id if user is a master of one ball."
      },
      "getNbBall()": {
        "details": "get the number of ball created since the beginning."
      },
      "isApprovedForAll(address,address)": {
        "details": "See {IERC721-isApprovedForAll}."
      },
      "masterOwnerOf(uint256)": {
        "details": "return the master owner of a ball."
      },
      "name()": {
        "details": "See {IERC721Metadata-name}."
      },
      "offerBall(address,uint256)": {
        "details": "Give the master owner role of a ball to someone else. Requirements: - only current master owner can transfert this role"
      },
      "ownerOf(uint256)": {
        "details": "See {IERC721-ownerOf}."
      },
      "safeTransferFrom(address,address,uint256)": {
        "details": "See {IERC721-safeTransferFrom}."
      },
      "safeTransferFrom(address,address,uint256,bytes)": {
        "details": "Shoot the ball to another player. Requirements: - only referee, owner master and token owner can transfert the ball"
      },
      "setApprovalForAll(address,bool)": {
        "details": "See {IERC721-setApprovalForAll}."
      },
      "setMinStealDelay(uint32)": {
        "details": "Change global minStealDelay. Requirements: - only referee can change it."
      },
      "shotTo(address,uint256)": {
        "details": "Shoot the ball to another player. Requirements: - only referee, owner master and token owner can transfert the ball"
      },
      "stealAfter(uint256)": {
        "details": "timestamp after you can steal ball. 0 if you can't."
      },
      "stealBall(uint256)": {
        "details": "Anybody can steal a ball. you can't steal the ball: - if the current owner is the master owner - if the current owner is the referee - if the last shot was less than minStealDelay old"
      },
      "supportsInterface(bytes4)": {
        "details": "See {IERC165-supportsInterface}."
      },
      "symbol()": {
        "details": "See {IERC721Metadata-symbol}."
      },
      "tokenURI(uint256)": {
        "details": "See {IERC721Metadata-tokenURI}."
      },
      "transferFrom(address,address,uint256)": {
        "details": "Shoot the ball to another player. Requirements: - only referee, owner master and token owner can transfert the ball"
      }
    },
    "version": 1
  },
  "userdoc": {
    "kind": "user",
    "methods": {},
    "version": 1
  }
}