{
  "contractName": "CryptoSoccerBall",
  "abi": [
    {
      "inputs": [],
      "stateMutability": "nonpayable",
      "type": "constructor"
    },
    {
      "anonymous": false,
      "inputs": [
        {
          "indexed": true,
          "internalType": "address",
          "name": "owner",
          "type": "address"
        },
        {
          "indexed": true,
          "internalType": "address",
          "name": "approved",
          "type": "address"
        },
        {
          "indexed": true,
          "internalType": "uint256",
          "name": "tokenId",
          "type": "uint256"
        }
      ],
      "name": "Approval",
      "type": "event"
    },
    {
      "anonymous": false,
      "inputs": [
        {
          "indexed": true,
          "internalType": "address",
          "name": "owner",
          "type": "address"
        },
        {
          "indexed": true,
          "internalType": "address",
          "name": "operator",
          "type": "address"
        },
        {
          "indexed": false,
          "internalType": "bool",
          "name": "approved",
          "type": "bool"
        }
      ],
      "name": "ApprovalForAll",
      "type": "event"
    },
    {
      "anonymous": false,
      "inputs": [
        {
          "indexed": true,
          "internalType": "address",
          "name": "from",
          "type": "address"
        },
        {
          "indexed": true,
          "internalType": "address",
          "name": "to",
          "type": "address"
        },
        {
          "indexed": true,
          "internalType": "uint256",
          "name": "tokenId",
          "type": "uint256"
        }
      ],
      "name": "Transfer",
      "type": "event"
    },
    {
      "inputs": [
        {
          "internalType": "address",
          "name": "to",
          "type": "address"
        },
        {
          "internalType": "uint256",
          "name": "tokenId",
          "type": "uint256"
        }
      ],
      "name": "approve",
      "outputs": [],
      "stateMutability": "nonpayable",
      "type": "function"
    },
    {
      "inputs": [
        {
          "internalType": "address",
          "name": "owner",
          "type": "address"
        }
      ],
      "name": "balanceOf",
      "outputs": [
        {
          "internalType": "uint256",
          "name": "",
          "type": "uint256"
        }
      ],
      "stateMutability": "view",
      "type": "function",
      "constant": true
    },
    {
      "inputs": [
        {
          "internalType": "uint256",
          "name": "tokenId",
          "type": "uint256"
        }
      ],
      "name": "getApproved",
      "outputs": [
        {
          "internalType": "address",
          "name": "",
          "type": "address"
        }
      ],
      "stateMutability": "view",
      "type": "function",
      "constant": true
    },
    {
      "inputs": [
        {
          "internalType": "address",
          "name": "owner",
          "type": "address"
        },
        {
          "internalType": "address",
          "name": "operator",
          "type": "address"
        }
      ],
      "name": "isApprovedForAll",
      "outputs": [
        {
          "internalType": "bool",
          "name": "",
          "type": "bool"
        }
      ],
      "stateMutability": "view",
      "type": "function",
      "constant": true
    },
    {
      "inputs": [],
      "name": "name",
      "outputs": [
        {
          "internalType": "string",
          "name": "",
          "type": "string"
        }
      ],
      "stateMutability": "view",
      "type": "function",
      "constant": true
    },
    {
      "inputs": [
        {
          "internalType": "uint256",
          "name": "tokenId",
          "type": "uint256"
        }
      ],
      "name": "ownerOf",
      "outputs": [
        {
          "internalType": "address",
          "name": "",
          "type": "address"
        }
      ],
      "stateMutability": "view",
      "type": "function",
      "constant": true
    },
    {
      "inputs": [
        {
          "internalType": "address",
          "name": "operator",
          "type": "address"
        },
        {
          "internalType": "bool",
          "name": "approved",
          "type": "bool"
        }
      ],
      "name": "setApprovalForAll",
      "outputs": [],
      "stateMutability": "nonpayable",
      "type": "function"
    },
    {
      "inputs": [
        {
          "internalType": "bytes4",
          "name": "interfaceId",
          "type": "bytes4"
        }
      ],
      "name": "supportsInterface",
      "outputs": [
        {
          "internalType": "bool",
          "name": "",
          "type": "bool"
        }
      ],
      "stateMutability": "view",
      "type": "function",
      "constant": true
    },
    {
      "inputs": [],
      "name": "symbol",
      "outputs": [
        {
          "internalType": "string",
          "name": "",
          "type": "string"
        }
      ],
      "stateMutability": "view",
      "type": "function",
      "constant": true
    },
    {
      "inputs": [
        {
          "internalType": "uint256",
          "name": "tokenId",
          "type": "uint256"
        }
      ],
      "name": "tokenURI",
      "outputs": [
        {
          "internalType": "string",
          "name": "",
          "type": "string"
        }
      ],
      "stateMutability": "view",
      "type": "function",
      "constant": true
    },
    {
      "inputs": [],
      "name": "createSoccerBall",
      "outputs": [],
      "stateMutability": "nonpayable",
      "type": "function"
    },
    {
      "inputs": [
        {
          "internalType": "address",
          "name": "user",
          "type": "address"
        }
      ],
      "name": "canCreateBall",
      "outputs": [
        {
          "internalType": "bool",
          "name": "",
          "type": "bool"
        }
      ],
      "stateMutability": "view",
      "type": "function",
      "constant": true
    },
    {
      "inputs": [],
      "name": "getNbBall",
      "outputs": [
        {
          "internalType": "uint32",
          "name": "",
          "type": "uint32"
        }
      ],
      "stateMutability": "view",
      "type": "function",
      "constant": true
    },
    {
      "inputs": [
        {
          "internalType": "uint256",
          "name": "tokenId",
          "type": "uint256"
        }
      ],
      "name": "exists",
      "outputs": [
        {
          "internalType": "bool",
          "name": "",
          "type": "bool"
        }
      ],
      "stateMutability": "view",
      "type": "function",
      "constant": true
    },
    {
      "inputs": [
        {
          "internalType": "address",
          "name": "user",
          "type": "address"
        }
      ],
      "name": "getMasterOwnerBallOf",
      "outputs": [
        {
          "internalType": "uint256",
          "name": "",
          "type": "uint256"
        }
      ],
      "stateMutability": "view",
      "type": "function",
      "constant": true
    },
    {
      "inputs": [],
      "name": "getMinStealDelay",
      "outputs": [
        {
          "internalType": "uint64",
          "name": "",
          "type": "uint64"
        }
      ],
      "stateMutability": "view",
      "type": "function",
      "constant": true
    },
    {
      "inputs": [],
      "name": "getReferee",
      "outputs": [
        {
          "internalType": "address",
          "name": "",
          "type": "address"
        }
      ],
      "stateMutability": "view",
      "type": "function",
      "constant": true
    },
    {
      "inputs": [
        {
          "internalType": "address",
          "name": "_owner",
          "type": "address"
        }
      ],
      "name": "tokensOfOwner",
      "outputs": [
        {
          "internalType": "uint256[]",
          "name": "ownerTokens",
          "type": "uint256[]"
        }
      ],
      "stateMutability": "view",
      "type": "function",
      "constant": true
    },
    {
      "inputs": [
        {
          "internalType": "uint256",
          "name": "tokenId",
          "type": "uint256"
        }
      ],
      "name": "masterOwnerOf",
      "outputs": [
        {
          "internalType": "address",
          "name": "",
          "type": "address"
        }
      ],
      "stateMutability": "view",
      "type": "function",
      "constant": true
    },
    {
      "inputs": [
        {
          "internalType": "uint256",
          "name": "tokenId",
          "type": "uint256"
        }
      ],
      "name": "getLastShootOf",
      "outputs": [
        {
          "internalType": "uint64",
          "name": "",
          "type": "uint64"
        }
      ],
      "stateMutability": "view",
      "type": "function",
      "constant": true
    },
    {
      "inputs": [
        {
          "internalType": "uint32",
          "name": "_newDelay",
          "type": "uint32"
        }
      ],
      "name": "setMinStealDelay",
      "outputs": [],
      "stateMutability": "nonpayable",
      "type": "function"
    },
    {
      "inputs": [
        {
          "internalType": "address",
          "name": "to",
          "type": "address"
        },
        {
          "internalType": "uint256",
          "name": "tokenId",
          "type": "uint256"
        }
      ],
      "name": "offerBall",
      "outputs": [],
      "stateMutability": "nonpayable",
      "type": "function"
    },
    {
      "inputs": [
        {
          "internalType": "uint256",
          "name": "tokenId",
          "type": "uint256"
        }
      ],
      "name": "stealAfter",
      "outputs": [
        {
          "internalType": "uint64",
          "name": "",
          "type": "uint64"
        }
      ],
      "stateMutability": "view",
      "type": "function",
      "constant": true
    },
    {
      "inputs": [
        {
          "internalType": "uint256",
          "name": "tokenId",
          "type": "uint256"
        }
      ],
      "name": "stealBall",
      "outputs": [],
      "stateMutability": "nonpayable",
      "type": "function"
    },
    {
      "inputs": [
        {
          "internalType": "address",
          "name": "to",
          "type": "address"
        },
        {
          "internalType": "uint256",
          "name": "tokenId",
          "type": "uint256"
        }
      ],
      "name": "shootTo",
      "outputs": [],
      "stateMutability": "nonpayable",
      "type": "function"
    },
    {
      "inputs": [
        {
          "internalType": "address",
          "name": "from",
          "type": "address"
        },
        {
          "internalType": "address",
          "name": "to",
          "type": "address"
        },
        {
          "internalType": "uint256",
          "name": "tokenId",
          "type": "uint256"
        }
      ],
      "name": "transferFrom",
      "outputs": [],
      "stateMutability": "nonpayable",
      "type": "function"
    },
    {
      "inputs": [
        {
          "internalType": "address",
          "name": "from",
          "type": "address"
        },
        {
          "internalType": "address",
          "name": "to",
          "type": "address"
        },
        {
          "internalType": "uint256",
          "name": "tokenId",
          "type": "uint256"
        }
      ],
      "name": "safeTransferFrom",
      "outputs": [],
      "stateMutability": "nonpayable",
      "type": "function"
    },
    {
      "inputs": [
        {
          "internalType": "address",
          "name": "from",
          "type": "address"
        },
        {
          "internalType": "address",
          "name": "to",
          "type": "address"
        },
        {
          "internalType": "uint256",
          "name": "tokenId",
          "type": "uint256"
        },
        {
          "internalType": "bytes",
          "name": "_data",
          "type": "bytes"
        }
      ],
      "name": "safeTransferFrom",
      "outputs": [],
      "stateMutability": "nonpayable",
      "type": "function"
    },
    {
      "inputs": [
        {
          "internalType": "uint256",
          "name": "tokenId",
          "type": "uint256"
        }
      ],
      "name": "burn",
      "outputs": [],
      "stateMutability": "nonpayable",
      "type": "function"
    }
  ],
  "bytecode": "0x60806040523480156200001157600080fd5b506040518060400160405280600b81526020017f536f636365722042616c6c0000000000000000000000000000000000000000008152506040518060400160405280600481526020017f42414c4c0000000000000000000000000000000000000000000000000000000081525081600090805190602001906200009692919062000146565b508060019080519060200190620000af92919062000146565b50505033600760046101000a81548173ffffffffffffffffffffffffffffffffffffffff021916908373ffffffffffffffffffffffffffffffffffffffff1602179055506000600760006101000a81548163ffffffff021916908363ffffffff160217905550611c20600760186101000a81548167ffffffffffffffff021916908367ffffffffffffffff1602179055506200025b565b8280546200015490620001f6565b90600052602060002090601f016020900481019282620001785760008555620001c4565b82601f106200019357805160ff1916838001178555620001c4565b82800160010185558215620001c4579182015b82811115620001c3578251825591602001919060010190620001a6565b5b509050620001d39190620001d7565b5090565b5b80821115620001f2576000816000905550600101620001d8565b5090565b600060028204905060018216806200020f57607f821691505b602082108114156200022657620002256200022c565b5b50919050565b7f4e487b7100000000000000000000000000000000000000000000000000000000600052602260045260246000fd5b614802806200026b6000396000f3fe608060405234801561001057600080fd5b50600436106101cf5760003560e01c80636352211e11610104578063aa036697116100a2578063c87b56dd11610071578063c87b56dd1461054e578063e985e9c51461057e578063f34a8296146105ae578063fa2c306c146105de576101cf565b8063aa036697146104c8578063b7f408a7146104e4578063b815ee7e14610502578063b88d4fde14610532576101cf565b80638462151c116100de5780638462151c1461042e57806395d89b411461045e578063a024e26a1461047c578063a22cb465146104ac576101cf565b80636352211e1461039e5780636d405902146103ce57806370a08231146103fe576101cf565b8063353ca6621161017157806342966c681161014b57806342966c68146103065780634c1579b8146103225780634f558e79146103525780635da15fb614610382576101cf565b8063353ca662146102c25780633bbd3b7e146102cc57806342842e0e146102ea576101cf565b8063095ea7b3116101ad578063095ea7b31461025257806323b872dd1461026e5780632630d1551461028a578063294d056d146102a6576101cf565b806301ffc9a7146101d457806306fdde0314610204578063081812fc14610222575b600080fd5b6101ee60048036038101906101e9919061342e565b6105fc565b6040516101fb9190613f06565b60405180910390f35b61020c6106de565b6040516102199190613f21565b60405180910390f35b61023c60048036038101906102379190613480565b610770565b6040516102499190613e7d565b60405180910390f35b61026c600480360381019061026791906133f2565b6107f5565b005b610288600480360381019061028391906132ec565b61090d565b005b6102a4600480360381019061029f91906133f2565b610a7c565b005b6102c060048036038101906102bb91906133f2565b610bf8565b005b6102ca610e8e565b005b6102d46111e4565b6040516102e19190613e7d565b60405180910390f35b61030460048036038101906102ff91906132ec565b61120e565b005b610320600480360381019061031b9190613480565b61122e565b005b61033c60048036038101906103379190613287565b611392565b6040516103499190614243565b60405180910390f35b61036c60048036038101906103679190613480565b6113db565b6040516103799190613f06565b60405180910390f35b61039c60048036038101906103979190613480565b6113ed565b005b6103b860048036038101906103b39190613480565b6116a1565b6040516103c59190613e7d565b60405180910390f35b6103e860048036038101906103e39190613480565b611753565b6040516103f59190614279565b60405180910390f35b61041860048036038101906104139190613287565b6117cc565b6040516104259190614243565b60405180910390f35b61044860048036038101906104439190613287565b611884565b6040516104559190613ee4565b60405180910390f35b610466611a6c565b6040516104739190613f21565b60405180910390f35b61049660048036038101906104919190613287565b611afe565b6040516104a39190613f06565b60405180910390f35b6104c660048036038101906104c191906133b6565b611b55565b005b6104e260048036038101906104dd91906134a9565b611cd6565b005b6104ec611d9f565b6040516104f9919061425e565b60405180910390f35b61051c60048036038101906105179190613480565b611db9565b6040516105299190614279565b60405180910390f35b61054c6004803603810190610547919061333b565b611f5e565b005b61056860048036038101906105639190613480565b6120cf565b6040516105759190613f21565b60405180910390f35b610598600480360381019061059391906132b0565b612221565b6040516105a59190613f06565b60405180910390f35b6105c860048036038101906105c39190613480565b6122b5565b6040516105d59190613e7d565b60405180910390f35b6105e661233a565b6040516105f39190614279565b60405180910390f35b60007f80ac58cd000000000000000000000000000000000000000000000000000000007bffffffffffffffffffffffffffffffffffffffffffffffffffffffff1916827bffffffffffffffffffffffffffffffffffffffffffffffffffffffff191614806106c757507f5b5e139f000000000000000000000000000000000000000000000000000000007bffffffffffffffffffffffffffffffffffffffffffffffffffffffff1916827bffffffffffffffffffffffffffffffffffffffffffffffffffffffff1916145b806106d757506106d682612358565b5b9050919050565b6060600080546106ed906145b2565b80601f0160208091040260200160405190810160405280929190818152602001828054610719906145b2565b80156107665780601f1061073b57610100808354040283529160200191610766565b820191906000526020600020905b81548152906001019060200180831161074957829003601f168201915b5050505050905090565b600061077b826123c2565b6107ba576040517f08c379a00000000000000000000000000000000000000000000000000000000081526004016107b190614143565b60405180910390fd5b6004600083815260200190815260200160002060009054906101000a900473ffffffffffffffffffffffffffffffffffffffff169050919050565b6000610800826116a1565b90508073ffffffffffffffffffffffffffffffffffffffff168373ffffffffffffffffffffffffffffffffffffffff161415610871576040517f08c379a0000000000000000000000000000000000000000000000000000000008152600401610868906141c3565b60405180910390fd5b8073ffffffffffffffffffffffffffffffffffffffff1661089061242e565b73ffffffffffffffffffffffffffffffffffffffff1614806108bf57506108be816108b961242e565b612221565b5b6108fe576040517f08c379a00000000000000000000000000000000000000000000000000000000081526004016108f590614043565b60405180910390fd5b6109088383612436565b505050565b60006009600083815260200190815260200160002060009054906101000a900473ffffffffffffffffffffffffffffffffffffffff169050600760049054906101000a900473ffffffffffffffffffffffffffffffffffffffff1673ffffffffffffffffffffffffffffffffffffffff1661098661242e565b73ffffffffffffffffffffffffffffffffffffffff1614806109da57508073ffffffffffffffffffffffffffffffffffffffff166109c261242e565b73ffffffffffffffffffffffffffffffffffffffff16145b806109f257506109f16109eb61242e565b836124ef565b5b610a31576040517f08c379a0000000000000000000000000000000000000000000000000000000008152600401610a2890614203565b60405180910390fd5b610a3c8484846125cd565b426008600084815260200190815260200160002060006101000a81548167ffffffffffffffff021916908367ffffffffffffffff16021790555050505050565b60006009600083815260200190815260200160002060009054906101000a900473ffffffffffffffffffffffffffffffffffffffff169050600760049054906101000a900473ffffffffffffffffffffffffffffffffffffffff1673ffffffffffffffffffffffffffffffffffffffff16610af561242e565b73ffffffffffffffffffffffffffffffffffffffff161480610b4957508073ffffffffffffffffffffffffffffffffffffffff16610b3161242e565b73ffffffffffffffffffffffffffffffffffffffff16145b80610b615750610b60610b5a61242e565b836124ef565b5b610ba0576040517f08c379a0000000000000000000000000000000000000000000000000000000008152600401610b9790614203565b60405180910390fd5b6000610bab836116a1565b9050610bb88185856125cd565b426008600085815260200190815260200160002060006101000a81548167ffffffffffffffff021916908367ffffffffffffffff16021790555050505050565b600073ffffffffffffffffffffffffffffffffffffffff168273ffffffffffffffffffffffffffffffffffffffff161415610c68576040517f08c379a0000000000000000000000000000000000000000000000000000000008152600401610c5f90613fe3565b60405180910390fd5b610c71816123c2565b610cb0576040517f08c379a0000000000000000000000000000000000000000000000000000000008152600401610ca790614023565b60405180910390fd5b6000600b60008473ffffffffffffffffffffffffffffffffffffffff1673ffffffffffffffffffffffffffffffffffffffff1681526020019081526020016000205414610d32576040517f08c379a0000000000000000000000000000000000000000000000000000000008152600401610d2990614223565b60405180910390fd5b60006009600083815260200190815260200160002060009054906101000a900473ffffffffffffffffffffffffffffffffffffffff1690508073ffffffffffffffffffffffffffffffffffffffff16610d8961242e565b73ffffffffffffffffffffffffffffffffffffffff1614610da957600080fd5b826009600084815260200190815260200160002060006101000a81548173ffffffffffffffffffffffffffffffffffffffff021916908373ffffffffffffffffffffffffffffffffffffffff160217905550600b6000610e0761242e565b73ffffffffffffffffffffffffffffffffffffffff1673ffffffffffffffffffffffffffffffffffffffff1681526020019081526020016000206000905581600b60008573ffffffffffffffffffffffffffffffffffffffff1673ffffffffffffffffffffffffffffffffffffffff16815260200190815260200160002081905550505050565b637fffffff600760009054906101000a900463ffffffff1663ffffffff1610610eec576040517f08c379a0000000000000000000000000000000000000000000000000000000008152600401610ee390614123565b60405180910390fd5b6000600b6000610efa61242e565b73ffffffffffffffffffffffffffffffffffffffff1673ffffffffffffffffffffffffffffffffffffffff1681526020019081526020016000205414610f75576040517f08c379a0000000000000000000000000000000000000000000000000000000008152600401610f6c906141a3565b60405180910390fd5b600a6000610f8161242e565b73ffffffffffffffffffffffffffffffffffffffff1673ffffffffffffffffffffffffffffffffffffffff16815260200190815260200160002060009054906101000a900460ff1615611009576040517f08c379a0000000000000000000000000000000000000000000000000000000008152600401611000906141e3565b60405180910390fd5b60006001600760009054906101000a900463ffffffff1661102a91906143c7565b63ffffffff1690506001600760009054906101000a900463ffffffff1661105191906143c7565b600760006101000a81548163ffffffff021916908363ffffffff16021790555061108261107c61242e565b82612829565b6110a4816040518060600160405280602e815260200161479f602e9139612847565b6110ac61242e565b6009600083815260200190815260200160002060006101000a81548173ffffffffffffffffffffffffffffffffffffffff021916908373ffffffffffffffffffffffffffffffffffffffff160217905550426008600083815260200190815260200160002060006101000a81548167ffffffffffffffff021916908367ffffffffffffffff1602179055506001600a600061114561242e565b73ffffffffffffffffffffffffffffffffffffffff1673ffffffffffffffffffffffffffffffffffffffff16815260200190815260200160002060006101000a81548160ff02191690831515021790555080600b60006111a361242e565b73ffffffffffffffffffffffffffffffffffffffff1673ffffffffffffffffffffffffffffffffffffffff1681526020019081526020016000208190555050565b6000600760049054906101000a900473ffffffffffffffffffffffffffffffffffffffff16905090565b61122983838360405180602001604052806000815250611f5e565b505050565b60006009600083815260200190815260200160002060009054906101000a900473ffffffffffffffffffffffffffffffffffffffff1690508073ffffffffffffffffffffffffffffffffffffffff1661128561242e565b73ffffffffffffffffffffffffffffffffffffffff16146112db576040517f08c379a00000000000000000000000000000000000000000000000000000000081526004016112d290614203565b60405180910390fd5b6112e4826128bb565b6009600083815260200190815260200160002060006101000a81549073ffffffffffffffffffffffffffffffffffffffff02191690556008600083815260200190815260200160002060006101000a81549067ffffffffffffffff0219169055600b600061135061242e565b73ffffffffffffffffffffffffffffffffffffffff1673ffffffffffffffffffffffffffffffffffffffff168152602001908152602001600020600090555050565b6000600b60008373ffffffffffffffffffffffffffffffffffffffff1673ffffffffffffffffffffffffffffffffffffffff168152602001908152602001600020549050919050565b60006113e6826123c2565b9050919050565b6000600760189054906101000a900467ffffffffffffffff1667ffffffffffffffff1611611450576040517f08c379a000000000000000000000000000000000000000000000000000000000815260040161144790613fc3565b60405180910390fd5b611459816123c2565b611498576040517f08c379a000000000000000000000000000000000000000000000000000000000815260040161148f90614023565b60405180910390fd5b60006009600083815260200190815260200160002060009054906101000a900473ffffffffffffffffffffffffffffffffffffffff16905060006114db836116a1565b9050600760049054906101000a900473ffffffffffffffffffffffffffffffffffffffff1673ffffffffffffffffffffffffffffffffffffffff168173ffffffffffffffffffffffffffffffffffffffff161415801561156757508173ffffffffffffffffffffffffffffffffffffffff168173ffffffffffffffffffffffffffffffffffffffff1614155b6115a6576040517f08c379a000000000000000000000000000000000000000000000000000000000815260040161159d90614103565b60405180910390fd5b60006008600085815260200190815260200160002060009054906101000a900467ffffffffffffffff169050600081426115e091906144a4565b9050600760189054906101000a900467ffffffffffffffff1667ffffffffffffffff168167ffffffffffffffff161161164e576040517f08c379a000000000000000000000000000000000000000000000000000000000815260040161164590613f43565b60405180910390fd5b6116608361165a61242e565b876125cd565b426008600087815260200190815260200160002060006101000a81548167ffffffffffffffff021916908367ffffffffffffffff1602179055505050505050565b6000806002600084815260200190815260200160002060009054906101000a900473ffffffffffffffffffffffffffffffffffffffff169050600073ffffffffffffffffffffffffffffffffffffffff168173ffffffffffffffffffffffffffffffffffffffff16141561174a576040517f08c379a000000000000000000000000000000000000000000000000000000000815260040161174190614083565b60405180910390fd5b80915050919050565b600061175e826123c2565b61179d576040517f08c379a000000000000000000000000000000000000000000000000000000000815260040161179490614023565b60405180910390fd5b6008600083815260200190815260200160002060009054906101000a900467ffffffffffffffff169050919050565b60008073ffffffffffffffffffffffffffffffffffffffff168273ffffffffffffffffffffffffffffffffffffffff16141561183d576040517f08c379a000000000000000000000000000000000000000000000000000000000815260040161183490614063565b60405180910390fd5b600360008373ffffffffffffffffffffffffffffffffffffffff1673ffffffffffffffffffffffffffffffffffffffff168152602001908152602001600020549050919050565b60606000611891836117cc565b9050600081141561191457600067ffffffffffffffff8111156118dd577f4e487b7100000000000000000000000000000000000000000000000000000000600052604160045260246000fd5b60405190808252806020026020018201604052801561190b5781602001602082028036833780820191505090505b50915050611a67565b60008167ffffffffffffffff811115611956577f4e487b7100000000000000000000000000000000000000000000000000000000600052604160045260246000fd5b6040519080825280602002602001820160405280156119845781602001602082028036833780820191505090505b509050600080600190505b600760009054906101000a900463ffffffff1663ffffffff1681111580156119b657508382105b15611a5f578573ffffffffffffffffffffffffffffffffffffffff166119db826116a1565b73ffffffffffffffffffffffffffffffffffffffff161415611a4c5780838381518110611a31577f4e487b7100000000000000000000000000000000000000000000000000000000600052603260045260246000fd5b6020026020010181815250508180611a48906145e4565b9250505b8080611a57906145e4565b91505061198f565b829450505050505b919050565b606060018054611a7b906145b2565b80601f0160208091040260200160405190810160405280929190818152602001828054611aa7906145b2565b8015611af45780601f10611ac957610100808354040283529160200191611af4565b820191906000526020600020905b815481529060010190602001808311611ad757829003601f168201915b5050505050905090565b6000600a60008373ffffffffffffffffffffffffffffffffffffffff1673ffffffffffffffffffffffffffffffffffffffff16815260200190815260200160002060009054906101000a900460ff16159050919050565b611b5d61242e565b73ffffffffffffffffffffffffffffffffffffffff168273ffffffffffffffffffffffffffffffffffffffff161415611bcb576040517f08c379a0000000000000000000000000000000000000000000000000000000008152600401611bc290614003565b60405180910390fd5b8060056000611bd861242e565b73ffffffffffffffffffffffffffffffffffffffff1673ffffffffffffffffffffffffffffffffffffffff16815260200190815260200160002060008473ffffffffffffffffffffffffffffffffffffffff1673ffffffffffffffffffffffffffffffffffffffff16815260200190815260200160002060006101000a81548160ff0219169083151502179055508173ffffffffffffffffffffffffffffffffffffffff16611c8561242e565b73ffffffffffffffffffffffffffffffffffffffff167f17307eab39ab6107e8899845ad3d59bd9653f200f220920489ca2b5937696c3183604051611cca9190613f06565b60405180910390a35050565b600760049054906101000a900473ffffffffffffffffffffffffffffffffffffffff1673ffffffffffffffffffffffffffffffffffffffff16611d1761242e565b73ffffffffffffffffffffffffffffffffffffffff1614611d6d576040517f08c379a0000000000000000000000000000000000000000000000000000000008152600401611d6490613f63565b60405180910390fd5b8063ffffffff16600760186101000a81548167ffffffffffffffff021916908367ffffffffffffffff16021790555050565b6000600760009054906101000a900463ffffffff16905090565b6000611dc4826123c2565b611e03576040517f08c379a0000000000000000000000000000000000000000000000000000000008152600401611dfa90614023565b60405180910390fd5b60006009600084815260200190815260200160002060009054906101000a900473ffffffffffffffffffffffffffffffffffffffff1690506000611e46846116a1565b90506000600760189054906101000a900467ffffffffffffffff1667ffffffffffffffff16111580611ec55750600760049054906101000a900473ffffffffffffffffffffffffffffffffffffffff1673ffffffffffffffffffffffffffffffffffffffff168173ffffffffffffffffffffffffffffffffffffffff16145b80611efb57508173ffffffffffffffffffffffffffffffffffffffff168173ffffffffffffffffffffffffffffffffffffffff16145b15611f0b57600092505050611f59565b600760189054906101000a900467ffffffffffffffff166008600086815260200190815260200160002060009054906101000a900467ffffffffffffffff16611f549190614401565b925050505b919050565b60006009600084815260200190815260200160002060009054906101000a900473ffffffffffffffffffffffffffffffffffffffff169050600760049054906101000a900473ffffffffffffffffffffffffffffffffffffffff1673ffffffffffffffffffffffffffffffffffffffff16611fd761242e565b73ffffffffffffffffffffffffffffffffffffffff16148061202b57508073ffffffffffffffffffffffffffffffffffffffff1661201361242e565b73ffffffffffffffffffffffffffffffffffffffff16145b80612043575061204261203c61242e565b846124ef565b5b612082576040517f08c379a000000000000000000000000000000000000000000000000000000000815260040161207990614203565b60405180910390fd5b61208e8585858561290e565b426008600085815260200190815260200160002060006101000a81548167ffffffffffffffff021916908367ffffffffffffffff1602179055505050505050565b60606120da826123c2565b612119576040517f08c379a0000000000000000000000000000000000000000000000000000000008152600401612110906140e3565b60405180910390fd5b6000600660008481526020019081526020016000208054612139906145b2565b80601f0160208091040260200160405190810160405280929190818152602001828054612165906145b2565b80156121b25780601f10612187576101008083540402835291602001916121b2565b820191906000526020600020905b81548152906001019060200180831161219557829003601f168201915b5050505050905060006121c361296a565b90506000815114156121d957819250505061221c565b60008251111561220e5780826040516020016121f6929190613e59565b6040516020818303038152906040529250505061221c565b61221784612981565b925050505b919050565b6000600560008473ffffffffffffffffffffffffffffffffffffffff1673ffffffffffffffffffffffffffffffffffffffff16815260200190815260200160002060008373ffffffffffffffffffffffffffffffffffffffff1673ffffffffffffffffffffffffffffffffffffffff16815260200190815260200160002060009054906101000a900460ff16905092915050565b60006122c0826123c2565b6122ff576040517f08c379a00000000000000000000000000000000000000000000000000000000081526004016122f690614023565b60405180910390fd5b6009600083815260200190815260200160002060009054906101000a900473ffffffffffffffffffffffffffffffffffffffff169050919050565b6000600760189054906101000a900467ffffffffffffffff16905090565b60007f01ffc9a7000000000000000000000000000000000000000000000000000000007bffffffffffffffffffffffffffffffffffffffffffffffffffffffff1916827bffffffffffffffffffffffffffffffffffffffffffffffffffffffff1916149050919050565b60008073ffffffffffffffffffffffffffffffffffffffff166002600084815260200190815260200160002060009054906101000a900473ffffffffffffffffffffffffffffffffffffffff1673ffffffffffffffffffffffffffffffffffffffff1614159050919050565b600033905090565b816004600083815260200190815260200160002060006101000a81548173ffffffffffffffffffffffffffffffffffffffff021916908373ffffffffffffffffffffffffffffffffffffffff160217905550808273ffffffffffffffffffffffffffffffffffffffff166124a9836116a1565b73ffffffffffffffffffffffffffffffffffffffff167f8c5be1e5ebec7d5bd14f71427d1e84f3dd0314c0f7b2291e5b200ac8c7c3b92560405160405180910390a45050565b60006124fa826123c2565b612539576040517f08c379a000000000000000000000000000000000000000000000000000000000815260040161253090614023565b60405180910390fd5b6000612544836116a1565b90508073ffffffffffffffffffffffffffffffffffffffff168473ffffffffffffffffffffffffffffffffffffffff1614806125b357508373ffffffffffffffffffffffffffffffffffffffff1661259b84610770565b73ffffffffffffffffffffffffffffffffffffffff16145b806125c457506125c38185612221565b5b91505092915050565b8273ffffffffffffffffffffffffffffffffffffffff166125ed826116a1565b73ffffffffffffffffffffffffffffffffffffffff1614612643576040517f08c379a000000000000000000000000000000000000000000000000000000000815260040161263a90614163565b60405180910390fd5b600073ffffffffffffffffffffffffffffffffffffffff168273ffffffffffffffffffffffffffffffffffffffff1614156126b3576040517f08c379a00000000000000000000000000000000000000000000000000000000081526004016126aa90613fe3565b60405180910390fd5b6126be838383612a28565b6126c9600082612436565b6001600360008573ffffffffffffffffffffffffffffffffffffffff1673ffffffffffffffffffffffffffffffffffffffff16815260200190815260200160002060008282546127199190614470565b925050819055506001600360008473ffffffffffffffffffffffffffffffffffffffff1673ffffffffffffffffffffffffffffffffffffffff16815260200190815260200160002060008282546127709190614371565b92505081905550816002600083815260200190815260200160002060006101000a81548173ffffffffffffffffffffffffffffffffffffffff021916908373ffffffffffffffffffffffffffffffffffffffff160217905550808273ffffffffffffffffffffffffffffffffffffffff168473ffffffffffffffffffffffffffffffffffffffff167fddf252ad1be2c89b69c2b068fc378daa952ba7f163c4a11628f55a4df523b3ef60405160405180910390a4505050565b612843828260405180602001604052806000815250612a2d565b5050565b612850826123c2565b61288f576040517f08c379a0000000000000000000000000000000000000000000000000000000008152600401612886906140a3565b60405180910390fd5b806006600084815260200190815260200160002090805190602001906128b69291906130be565b505050565b6128c481612a88565b60006006600083815260200190815260200160002080546128e4906145b2565b90501461290b5760066000828152602001908152602001600020600061290a9190613144565b5b50565b6129198484846125cd565b61292584848484612b99565b612964576040517f08c379a000000000000000000000000000000000000000000000000000000000815260040161295b90613f83565b60405180910390fd5b50505050565b606060405180602001604052806000815250905090565b606061298c826123c2565b6129cb576040517f08c379a00000000000000000000000000000000000000000000000000000000081526004016129c290614183565b60405180910390fd5b60006129d561296a565b905060008151116129f55760405180602001604052806000815250612a20565b806129ff84612d30565b604051602001612a10929190613e59565b6040516020818303038152906040525b915050919050565b505050565b612a378383612edd565b612a446000848484612b99565b612a83576040517f08c379a0000000000000000000000000000000000000000000000000000000008152600401612a7a90613f83565b60405180910390fd5b505050565b6000612a93826116a1565b9050612aa181600084612a28565b612aac600083612436565b6001600360008373ffffffffffffffffffffffffffffffffffffffff1673ffffffffffffffffffffffffffffffffffffffff1681526020019081526020016000206000828254612afc9190614470565b925050819055506002600083815260200190815260200160002060006101000a81549073ffffffffffffffffffffffffffffffffffffffff021916905581600073ffffffffffffffffffffffffffffffffffffffff168273ffffffffffffffffffffffffffffffffffffffff167fddf252ad1be2c89b69c2b068fc378daa952ba7f163c4a11628f55a4df523b3ef60405160405180910390a45050565b6000612bba8473ffffffffffffffffffffffffffffffffffffffff166130ab565b15612d23578373ffffffffffffffffffffffffffffffffffffffff1663150b7a02612be361242e565b8786866040518563ffffffff1660e01b8152600401612c059493929190613e98565b602060405180830381600087803b158015612c1f57600080fd5b505af1925050508015612c5057506040513d601f19601f82011682018060405250810190612c4d9190613457565b60015b612cd3573d8060008114612c80576040519150601f19603f3d011682016040523d82523d6000602084013e612c85565b606091505b50600081511415612ccb576040517f08c379a0000000000000000000000000000000000000000000000000000000008152600401612cc290613f83565b60405180910390fd5b805181602001fd5b63150b7a0260e01b7bffffffffffffffffffffffffffffffffffffffffffffffffffffffff1916817bffffffffffffffffffffffffffffffffffffffffffffffffffffffff191614915050612d28565b600190505b949350505050565b60606000821415612d78576040518060400160405280600181526020017f30000000000000000000000000000000000000000000000000000000000000008152509050612ed8565b600082905060005b60008214612daa578080612d93906145e4565b915050600a82612da3919061443f565b9150612d80565b60008167ffffffffffffffff811115612dec577f4e487b7100000000000000000000000000000000000000000000000000000000600052604160045260246000fd5b6040519080825280601f01601f191660200182016040528015612e1e5781602001600182028036833780820191505090505b5090505b60008514612ed157600182612e379190614470565b9150600a85612e46919061462d565b6030612e529190614371565b60f81b818381518110612e8e577f4e487b7100000000000000000000000000000000000000000000000000000000600052603260045260246000fd5b60200101907effffffffffffffffffffffffffffffffffffffffffffffffffffffffffffff1916908160001a905350600a85612eca919061443f565b9450612e22565b8093505050505b919050565b600073ffffffffffffffffffffffffffffffffffffffff168273ffffffffffffffffffffffffffffffffffffffff161415612f4d576040517f08c379a0000000000000000000000000000000000000000000000000000000008152600401612f44906140c3565b60405180910390fd5b612f56816123c2565b15612f96576040517f08c379a0000000000000000000000000000000000000000000000000000000008152600401612f8d90613fa3565b60405180910390fd5b612fa260008383612a28565b6001600360008473ffffffffffffffffffffffffffffffffffffffff1673ffffffffffffffffffffffffffffffffffffffff1681526020019081526020016000206000828254612ff29190614371565b92505081905550816002600083815260200190815260200160002060006101000a81548173ffffffffffffffffffffffffffffffffffffffff021916908373ffffffffffffffffffffffffffffffffffffffff160217905550808273ffffffffffffffffffffffffffffffffffffffff16600073ffffffffffffffffffffffffffffffffffffffff167fddf252ad1be2c89b69c2b068fc378daa952ba7f163c4a11628f55a4df523b3ef60405160405180910390a45050565b600080823b905060008111915050919050565b8280546130ca906145b2565b90600052602060002090601f0160209004810192826130ec5760008555613133565b82601f1061310557805160ff1916838001178555613133565b82800160010185558215613133579182015b82811115613132578251825591602001919060010190613117565b5b5090506131409190613184565b5090565b508054613150906145b2565b6000825580601f106131625750613181565b601f0160209004906000526020600020908101906131809190613184565b5b50565b5b8082111561319d576000816000905550600101613185565b5090565b60006131b46131af846142c5565b614294565b9050828152602081018484840111156131cc57600080fd5b6131d7848285614570565b509392505050565b6000813590506131ee8161472b565b92915050565b60008135905061320381614742565b92915050565b60008135905061321881614759565b92915050565b60008151905061322d81614759565b92915050565b600082601f83011261324457600080fd5b81356132548482602086016131a1565b91505092915050565b60008135905061326c81614770565b92915050565b60008135905061328181614787565b92915050565b60006020828403121561329957600080fd5b60006132a7848285016131df565b91505092915050565b600080604083850312156132c357600080fd5b60006132d1858286016131df565b92505060206132e2858286016131df565b9150509250929050565b60008060006060848603121561330157600080fd5b600061330f868287016131df565b9350506020613320868287016131df565b92505060406133318682870161325d565b9150509250925092565b6000806000806080858703121561335157600080fd5b600061335f878288016131df565b9450506020613370878288016131df565b93505060406133818782880161325d565b925050606085013567ffffffffffffffff81111561339e57600080fd5b6133aa87828801613233565b91505092959194509250565b600080604083850312156133c957600080fd5b60006133d7858286016131df565b92505060206133e8858286016131f4565b9150509250929050565b6000806040838503121561340557600080fd5b6000613413858286016131df565b92505060206134248582860161325d565b9150509250929050565b60006020828403121561344057600080fd5b600061344e84828501613209565b91505092915050565b60006020828403121561346957600080fd5b60006134778482850161321e565b91505092915050565b60006020828403121561349257600080fd5b60006134a08482850161325d565b91505092915050565b6000602082840312156134bb57600080fd5b60006134c984828501613272565b91505092915050565b60006134de8383613e1d565b60208301905092915050565b6134f3816144d8565b82525050565b600061350482614305565b61350e8185614333565b9350613519836142f5565b8060005b8381101561354a57815161353188826134d2565b975061353c83614326565b92505060018101905061351d565b5085935050505092915050565b613560816144ea565b82525050565b600061357182614310565b61357b8185614344565b935061358b81856020860161457f565b6135948161471a565b840191505092915050565b60006135aa8261431b565b6135b48185614355565b93506135c481856020860161457f565b6135cd8161471a565b840191505092915050565b60006135e38261431b565b6135ed8185614366565b93506135fd81856020860161457f565b80840191505092915050565b6000613616600f83614355565b91507f546865667420746f6f206561726c7900000000000000000000000000000000006000830152602082019050919050565b6000613656601a83614355565b91507f4f6e6c7920726566657265652063616e206368616e67652069740000000000006000830152602082019050919050565b6000613696603283614355565b91507f4552433732313a207472616e7366657220746f206e6f6e20455243373231526560008301527f63656976657220696d706c656d656e74657200000000000000000000000000006020830152604082019050919050565b60006136fc601c83614355565b91507f4552433732313a20746f6b656e20616c7265616479206d696e746564000000006000830152602082019050919050565b600061373c601283614355565b91507f537465616c206e6f7420616374697661746500000000000000000000000000006000830152602082019050919050565b600061377c602483614355565b91507f4552433732313a207472616e7366657220746f20746865207a65726f2061646460008301527f72657373000000000000000000000000000000000000000000000000000000006020830152604082019050919050565b60006137e2601983614355565b91507f4552433732313a20617070726f766520746f2063616c6c6572000000000000006000830152602082019050919050565b6000613822602c83614355565b91507f4552433732313a206f70657261746f7220717565727920666f72206e6f6e657860008301527f697374656e7420746f6b656e00000000000000000000000000000000000000006020830152604082019050919050565b6000613888603883614355565b91507f4552433732313a20617070726f76652063616c6c6572206973206e6f74206f7760008301527f6e6572206e6f7220617070726f76656420666f7220616c6c00000000000000006020830152604082019050919050565b60006138ee602a83614355565b91507f4552433732313a2062616c616e636520717565727920666f7220746865207a6560008301527f726f2061646472657373000000000000000000000000000000000000000000006020830152604082019050919050565b6000613954602983614355565b91507f4552433732313a206f776e657220717565727920666f72206e6f6e657869737460008301527f656e7420746f6b656e00000000000000000000000000000000000000000000006020830152604082019050919050565b60006139ba602e83614355565b91507f45524337323155524953746f726167653a2055524920736574206f66206e6f6e60008301527f6578697374656e7420746f6b656e0000000000000000000000000000000000006020830152604082019050919050565b6000613a20602083614355565b91507f4552433732313a206d696e7420746f20746865207a65726f20616464726573736000830152602082019050919050565b6000613a60603183614355565b91507f45524337323155524953746f726167653a2055524920717565727920666f722060008301527f6e6f6e6578697374656e7420746f6b656e0000000000000000000000000000006020830152604082019050919050565b6000613ac6603783614355565b91507f4552433732313a207472616e736665722063616c6c6572206973206e6f74206d60008301527f6173746572206f776e6572206e6f7220726566657265650000000000000000006020830152604082019050919050565b6000613b2c600c83614355565b91507f4e6f206d6f72652062616c6c00000000000000000000000000000000000000006000830152602082019050919050565b6000613b6c602c83614355565b91507f4552433732313a20617070726f76656420717565727920666f72206e6f6e657860008301527f697374656e7420746f6b656e00000000000000000000000000000000000000006020830152604082019050919050565b6000613bd2602983614355565b91507f4552433732313a207472616e73666572206f6620746f6b656e2074686174206960008301527f73206e6f74206f776e00000000000000000000000000000000000000000000006020830152604082019050919050565b6000613c38602f83614355565b91507f4552433732314d657461646174613a2055524920717565727920666f72206e6f60008301527f6e6578697374656e7420746f6b656e00000000000000000000000000000000006020830152604082019050919050565b6000613c9e601783614355565b91507f596f7520616c7265616479206861766520612062616c6c0000000000000000006000830152602082019050919050565b6000613cde602183614355565b91507f4552433732313a20617070726f76616c20746f2063757272656e74206f776e6560008301527f72000000000000000000000000000000000000000000000000000000000000006020830152604082019050919050565b6000613d44601783614355565b91507f596f7520616c7265616479206d696e7420612062616c6c0000000000000000006000830152602082019050919050565b6000613d84603183614355565b91507f4552433732313a207472616e736665722063616c6c6572206973206e6f74206f60008301527f776e6572206e6f7220617070726f7665640000000000000000000000000000006020830152604082019050919050565b6000613dea602083614355565b91507f44657374696e61746169726520616c7265616479206861766520612062616c6c6000830152602082019050919050565b613e2681614542565b82525050565b613e3581614542565b82525050565b613e448161454c565b82525050565b613e538161455c565b82525050565b6000613e6582856135d8565b9150613e7182846135d8565b91508190509392505050565b6000602082019050613e9260008301846134ea565b92915050565b6000608082019050613ead60008301876134ea565b613eba60208301866134ea565b613ec76040830185613e2c565b8181036060830152613ed98184613566565b905095945050505050565b60006020820190508181036000830152613efe81846134f9565b905092915050565b6000602082019050613f1b6000830184613557565b92915050565b60006020820190508181036000830152613f3b818461359f565b905092915050565b60006020820190508181036000830152613f5c81613609565b9050919050565b60006020820190508181036000830152613f7c81613649565b9050919050565b60006020820190508181036000830152613f9c81613689565b9050919050565b60006020820190508181036000830152613fbc816136ef565b9050919050565b60006020820190508181036000830152613fdc8161372f565b9050919050565b60006020820190508181036000830152613ffc8161376f565b9050919050565b6000602082019050818103600083015261401c816137d5565b9050919050565b6000602082019050818103600083015261403c81613815565b9050919050565b6000602082019050818103600083015261405c8161387b565b9050919050565b6000602082019050818103600083015261407c816138e1565b9050919050565b6000602082019050818103600083015261409c81613947565b9050919050565b600060208201905081810360008301526140bc816139ad565b9050919050565b600060208201905081810360008301526140dc81613a13565b9050919050565b600060208201905081810360008301526140fc81613a53565b9050919050565b6000602082019050818103600083015261411c81613ab9565b9050919050565b6000602082019050818103600083015261413c81613b1f565b9050919050565b6000602082019050818103600083015261415c81613b5f565b9050919050565b6000602082019050818103600083015261417c81613bc5565b9050919050565b6000602082019050818103600083015261419c81613c2b565b9050919050565b600060208201905081810360008301526141bc81613c91565b9050919050565b600060208201905081810360008301526141dc81613cd1565b9050919050565b600060208201905081810360008301526141fc81613d37565b9050919050565b6000602082019050818103600083015261421c81613d77565b9050919050565b6000602082019050818103600083015261423c81613ddd565b9050919050565b60006020820190506142586000830184613e2c565b92915050565b60006020820190506142736000830184613e3b565b92915050565b600060208201905061428e6000830184613e4a565b92915050565b6000604051905081810181811067ffffffffffffffff821117156142bb576142ba6146eb565b5b8060405250919050565b600067ffffffffffffffff8211156142e0576142df6146eb565b5b601f19601f8301169050602081019050919050565b6000819050602082019050919050565b600081519050919050565b600081519050919050565b600081519050919050565b6000602082019050919050565b600082825260208201905092915050565b600082825260208201905092915050565b600082825260208201905092915050565b600081905092915050565b600061437c82614542565b915061438783614542565b9250827fffffffffffffffffffffffffffffffffffffffffffffffffffffffffffffffff038211156143bc576143bb61465e565b5b828201905092915050565b60006143d28261454c565b91506143dd8361454c565b92508263ffffffff038211156143f6576143f561465e565b5b828201905092915050565b600061440c8261455c565b91506144178361455c565b92508267ffffffffffffffff038211156144345761443361465e565b5b828201905092915050565b600061444a82614542565b915061445583614542565b9250826144655761446461468d565b5b828204905092915050565b600061447b82614542565b915061448683614542565b9250828210156144995761449861465e565b5b828203905092915050565b60006144af8261455c565b91506144ba8361455c565b9250828210156144cd576144cc61465e565b5b828203905092915050565b60006144e382614522565b9050919050565b60008115159050919050565b60007fffffffff0000000000000000000000000000000000000000000000000000000082169050919050565b600073ffffffffffffffffffffffffffffffffffffffff82169050919050565b6000819050919050565b600063ffffffff82169050919050565b600067ffffffffffffffff82169050919050565b82818337600083830152505050565b60005b8381101561459d578082015181840152602081019050614582565b838111156145ac576000848401525b50505050565b600060028204905060018216806145ca57607f821691505b602082108114156145de576145dd6146bc565b5b50919050565b60006145ef82614542565b91507fffffffffffffffffffffffffffffffffffffffffffffffffffffffffffffffff8214156146225761462161465e565b5b600182019050919050565b600061463882614542565b915061464383614542565b9250826146535761465261468d565b5b828206905092915050565b7f4e487b7100000000000000000000000000000000000000000000000000000000600052601160045260246000fd5b7f4e487b7100000000000000000000000000000000000000000000000000000000600052601260045260246000fd5b7f4e487b7100000000000000000000000000000000000000000000000000000000600052602260045260246000fd5b7f4e487b7100000000000000000000000000000000000000000000000000000000600052604160045260246000fd5b6000601f19601f8301169050919050565b614734816144d8565b811461473f57600080fd5b50565b61474b816144ea565b811461475657600080fd5b50565b614762816144f6565b811461476d57600080fd5b50565b61477981614542565b811461478457600080fd5b50565b6147908161454c565b811461479b57600080fd5b5056fe516d617569435a52667138766d473377534b63594e794a385a524c414d38374b556f48476b6a36565a6d627a4761a2646970667358221220574efa98d10e8d3b947bdfe3ad4cb9c20a8c1e83f9c289060868b64b9b01f4ba64736f6c63430008000033",
  "immutableReferences": {},
  "source": "// SPDX-License-Identifier: MIT\npragma solidity >=0.4.22 <0.9.0;\n\nimport \"./ERC721URIStorage.sol\";\n\ncontract CryptoSoccerBall is ERC721URIStorage {\n\n    // nb total of ball created\n    uint32 nbBall;\n\n    // address of contract creator\n    address referee;\n\n    // delay before you can steal a ball (2h by default)\n    uint64 minStealDelay;\n\n    // Mapping from token ID to last shoot timestamp\n    mapping (uint256 => uint64) private _lastShot;\n\n    // Mapping from token ID to master owner address\n    mapping (uint256 => address) private _masterOwner;\n\n    // Mapping from owner to boolean\n    mapping (address => bool) private _alreadyMint;\n\n    // Mapping from masterOwner to ballId\n    mapping (address => uint256) private _haveMaster;\n\n\n    /**\n     * @dev The account that deploy this contact become the match referee.\n     *\n     */\n    constructor() ERC721(\"Soccer Ball\", \"BALL\") {\n        referee = msg.sender;\n        nbBall = 0;\n        minStealDelay = 2 hours;\n    }\n\n    /**\n     * @dev Everybody can create one and only one ball.\n     *      The account that create the ball become the masterOwner.\n     *\n     */\n    function createSoccerBall() public {\n        require(nbBall < 2**31 - 1, \"No more ball\");\n        require(_haveMaster[_msgSender()] == 0, \"You already have a ball\");\n        require(!_alreadyMint[_msgSender()], \"You already mint a ball\");\n        uint _id = nbBall + 1;\n        nbBall = nbBall + 1;\n        _safeMint(_msgSender(), _id);\n        _setTokenURI(_id, \"QmauiCZRfq8vmG3wSKcYNyJ8ZRLAM87KUoHGkj6VZmbzGa\");\n        _masterOwner[_id] = _msgSender();\n        _lastShot[_id] = uint64(block.timestamp);\n        _alreadyMint[_msgSender()] = true;\n        _haveMaster[_msgSender()] = _id;\n    }\n\n    /**\n     * @dev test if one user already create a ball.\n     *\n     */\n    function canCreateBall(address user) public view virtual returns (bool) {\n        return !_alreadyMint[user];\n    }\n\n    /**\n     * @dev get the number of ball created since the beginning.\n     *\n     */\n    function getNbBall() public view virtual returns (uint32) {\n        return nbBall;\n    }\n\n    function exists(uint256 tokenId) public view virtual returns (bool) {\n        return _exists(tokenId);\n    }\n\n    /**\n     * @dev get the ball id if user is a master of one ball.\n     *\n     */\n    function getMasterOwnerBallOf(address user) public view virtual returns (uint256) {\n        return _haveMaster[user];\n    }\n\n    function getMinStealDelay() public view virtual returns (uint64) {\n        return minStealDelay;\n    }\n\n    function getReferee() public view virtual returns (address) {\n        return referee;\n    }\n\n   function tokensOfOwner(address _owner) external view returns(uint256[] memory ownerTokens) {\n        uint256 tokenCount = balanceOf(_owner);\n\n        if (tokenCount == 0) {\n            // Return an empty array\n            return new uint256[](0);\n        } else {\n            uint256[] memory result = new uint256[](tokenCount);\n            uint256 resultIndex = 0;\n            uint256 tokenId;\n\n            for (tokenId = 1; tokenId <= nbBall && resultIndex < tokenCount; tokenId++) {\n                if (ERC721.ownerOf(tokenId) == _owner) {\n                    result[resultIndex] = tokenId;\n                    resultIndex++;\n                }\n            }\n\n            return result;\n        }\n    }\n\n\n    /**\n     * @dev return the master owner of a ball.\n     *\n     */\n    function masterOwnerOf(uint256 tokenId) public view virtual returns (address) {\n        require(_exists(tokenId), \"ERC721: operator query for nonexistent token\");\n        return _masterOwner[tokenId];\n    }\n\n    /**\n     * @dev return last shoot date of a bollon.\n     *\n     */\n    function getLastShootOf(uint256 tokenId) public view virtual returns (uint64) {\n        require(_exists(tokenId), \"ERC721: operator query for nonexistent token\");\n        return _lastShot[tokenId];\n    }\n\n    /**\n     * @dev Change global minStealDelay.\n     *\n     * Requirements:\n     *\n     * - only referee can change it.\n     */\n    function setMinStealDelay(uint32 _newDelay) public virtual {\n        require(_msgSender() == referee, \"Only referee can change it\");\n        minStealDelay = _newDelay;\n    }\n\n    /**\n     * @dev Give the master owner role of a ball to someone else.\n     *\n     * Requirements:\n     *\n     * - only current master owner can transfert this role\n     */\n    function offerBall(address to, uint256 tokenId) public virtual {\n        require(to != address(0), \"ERC721: transfer to the zero address\");\n        require(_exists(tokenId), \"ERC721: operator query for nonexistent token\");\n        require(_haveMaster[to] == 0, \"Destinataire already have a ball\");\n        address ballOwner = _masterOwner[tokenId];\n        require(_msgSender() == ballOwner);\n        _masterOwner[tokenId] = to;\n        delete _haveMaster[_msgSender()];\n        _haveMaster[to] = tokenId;\n    }\n\n\n    /**\n     * @dev timestamp after you can steal ball. 0 if you can't.\n     *\n     */\n    function stealAfter(uint256 tokenId) public view virtual returns (uint64) {\n        require(_exists(tokenId), \"ERC721: operator query for nonexistent token\");\n        address master = _masterOwner[tokenId];\n        address owner = ERC721.ownerOf(tokenId);\n        if (minStealDelay <= 0 || owner == referee || owner == master) {\n            return 0;\n        }\n        return _lastShot[tokenId] + minStealDelay;\n    }\n\n\n    /**\n     * @dev Anybody can steal a ball.\n     *\n     * you can't steal the ball:\n     *\n     * - if the current owner is the master owner\n     * - if the current owner is the referee\n     * - if the last shot was less than minStealDelay old\n     */\n    function stealBall(uint256 tokenId) public virtual {\n        require(minStealDelay > 0, \"Steal not activate\");\n        require(_exists(tokenId), \"ERC721: operator query for nonexistent token\");\n        address master = _masterOwner[tokenId];\n        address owner = ERC721.ownerOf(tokenId);\n        require(owner != referee && owner != master, \"ERC721: transfer caller is not master owner nor referee\");\n        uint64 lastShot = _lastShot[tokenId];\n        uint64 delta = uint64(block.timestamp) - lastShot;\n        require(delta > minStealDelay, \"Theft too early\");\n        _transfer(owner, _msgSender(), tokenId);\n        _lastShot[tokenId] = uint64(block.timestamp);\n    }\n\n    /**\n     * @dev Shoot the ball to another player.\n     *\n     * Requirements:\n     *\n     * - only referee, owner master and token owner can transfert the ball\n     */\n    function shootTo(address to, uint256 tokenId) public virtual {\n        address master = _masterOwner[tokenId];\n        require(_msgSender() == referee || _msgSender() == master || _isApprovedOrOwner(_msgSender(), tokenId), \"ERC721: transfer caller is not owner nor approved\");\n        address owner = ERC721.ownerOf(tokenId);\n        _transfer(owner, to, tokenId);\n        _lastShot[tokenId] = uint64(block.timestamp);\n    }\n\n\n    /**\n     * @dev Shoot the ball to another player.\n     *\n     * Requirements:\n     *\n     * - only referee, owner master and token owner can transfert the ball\n     */\n    function transferFrom(address from, address to, uint256 tokenId) public virtual override {\n        address master = _masterOwner[tokenId];\n        require(_msgSender() == referee || _msgSender() == master || _isApprovedOrOwner(_msgSender(), tokenId), \"ERC721: transfer caller is not owner nor approved\");\n        _transfer(from, to, tokenId);\n        _lastShot[tokenId] = uint64(block.timestamp);\n    }\n\n    /**\n     * @dev Shoot the ball to another player.\n     *\n     * Requirements:\n     *\n     * - only referee, owner master and token owner can transfert the ball\n     */\n    function safeTransferFrom(address from, address to, uint256 tokenId, bytes memory _data) public virtual override {\n        address master = _masterOwner[tokenId];\n        require(_msgSender() == referee || _msgSender() == master || _isApprovedOrOwner(_msgSender(), tokenId), \"ERC721: transfer caller is not owner nor approved\");\n        _safeTransfer(from, to, tokenId, _data);\n        _lastShot[tokenId] = uint64(block.timestamp);\n    }\n\n    /**\n     * @dev Destroy a ball.\n     *\n     * Requirements:\n     *\n     * - only master owner can burn the ball\n     */\n    function burn(uint256 tokenId) public virtual {\n        //solhint-disable-next-line max-line-length\n        address master = _masterOwner[tokenId];\n        require(_msgSender() == master, \"ERC721: transfer caller is not owner nor approved\");\n        _burn(tokenId);\n        delete _masterOwner[tokenId];\n        delete _lastShot[tokenId];\n        delete _haveMaster[_msgSender()];\n    }\n}\n",
  "sourcePath": "/home/lvzj4081/dev/p2p/crypto-soccer-ball/contracts/CryptoSoccerBall.sol",
  "compiler": {
    "name": "solc",
    "version": "0.8.0+commit.c7dfd78e.Emscripten.clang"
  },
  "schemaVersion": "3.3.4",
  "updatedAt": "2021-04-05T10:42:37.375Z",
  "networkType": "ethereum",
  "devdoc": {
    "kind": "dev",
    "methods": {
      "approve(address,uint256)": {
        "details": "See {IERC721-approve}."
      },
      "balanceOf(address)": {
        "details": "See {IERC721-balanceOf}."
      },
      "burn(uint256)": {
        "details": "Destroy a ball. Requirements: - only master owner can burn the ball"
      },
      "canCreateBall(address)": {
        "details": "test if one user already create a ball."
      },
      "constructor": {
        "details": "The account that deploy this contact become the match referee."
      },
      "createSoccerBall()": {
        "details": "Everybody can create one and only one ball.      The account that create the ball become the masterOwner."
      },
      "getApproved(uint256)": {
        "details": "See {IERC721-getApproved}."
      },
      "getLastShootOf(uint256)": {
        "details": "return last shoot date of a bollon."
      },
      "getMasterOwnerBallOf(address)": {
        "details": "get the ball id if user is a master of one ball."
      },
      "getNbBall()": {
        "details": "get the number of ball created since the beginning."
      },
      "isApprovedForAll(address,address)": {
        "details": "See {IERC721-isApprovedForAll}."
      },
      "masterOwnerOf(uint256)": {
        "details": "return the master owner of a ball."
      },
      "name()": {
        "details": "See {IERC721Metadata-name}."
      },
      "offerBall(address,uint256)": {
        "details": "Give the master owner role of a ball to someone else. Requirements: - only current master owner can transfert this role"
      },
      "ownerOf(uint256)": {
        "details": "See {IERC721-ownerOf}."
      },
      "safeTransferFrom(address,address,uint256)": {
        "details": "See {IERC721-safeTransferFrom}."
      },
      "safeTransferFrom(address,address,uint256,bytes)": {
        "details": "Shoot the ball to another player. Requirements: - only referee, owner master and token owner can transfert the ball"
      },
      "setApprovalForAll(address,bool)": {
        "details": "See {IERC721-setApprovalForAll}."
      },
      "setMinStealDelay(uint32)": {
        "details": "Change global minStealDelay. Requirements: - only referee can change it."
      },
      "shootTo(address,uint256)": {
        "details": "Shoot the ball to another player. Requirements: - only referee, owner master and token owner can transfert the ball"
      },
      "stealAfter(uint256)": {
        "details": "timestamp after you can steal ball. 0 if you can't."
      },
      "stealBall(uint256)": {
        "details": "Anybody can steal a ball. you can't steal the ball: - if the current owner is the master owner - if the current owner is the referee - if the last shot was less than minStealDelay old"
      },
      "supportsInterface(bytes4)": {
        "details": "See {IERC165-supportsInterface}."
      },
      "symbol()": {
        "details": "See {IERC721Metadata-symbol}."
      },
      "tokenURI(uint256)": {
        "details": "See {IERC721Metadata-tokenURI}."
      },
      "transferFrom(address,address,uint256)": {
        "details": "Shoot the ball to another player. Requirements: - only referee, owner master and token owner can transfert the ball"
      }
    },
    "version": 1
  },
  "userdoc": {
    "kind": "user",
    "methods": {},
    "version": 1
  }
}